{
  "contractName": "MaterialProvider",
  "abi": [
    {
      "inputs": [],
      "name": "alumiBars",
      "outputs": [
        {
          "internalType": "uint256",
          "name": "",
          "type": "uint256"
        }
      ],
      "stateMutability": "view",
      "type": "function",
      "constant": true
    },
    {
      "inputs": [],
      "name": "leds",
      "outputs": [
        {
          "internalType": "uint256",
          "name": "",
          "type": "uint256"
        }
      ],
      "stateMutability": "view",
      "type": "function",
      "constant": true
    },
    {
      "inputs": [],
      "name": "lightBulbs",
      "outputs": [
        {
          "internalType": "uint256",
          "name": "",
          "type": "uint256"
        }
      ],
      "stateMutability": "view",
      "type": "function",
      "constant": true
    },
    {
      "inputs": [],
      "name": "materialListCount",
      "outputs": [
        {
          "internalType": "uint256",
          "name": "",
          "type": "uint256"
        }
      ],
      "stateMutability": "view",
      "type": "function",
      "constant": true
    },
    {
      "inputs": [
        {
          "internalType": "uint256",
          "name": "",
          "type": "uint256"
        }
      ],
      "name": "materials",
      "outputs": [
        {
          "internalType": "uint256",
          "name": "aluminiumBars",
          "type": "uint256"
        },
        {
          "internalType": "uint256",
          "name": "stainlessSteelSheets",
          "type": "uint256"
        },
        {
          "internalType": "uint256",
          "name": "bumperRubberBands",
          "type": "uint256"
        },
        {
          "internalType": "uint256",
          "name": "interiorLightBulbs",
          "type": "uint256"
        },
        {
          "internalType": "uint256",
          "name": "displayLeds",
          "type": "uint256"
        },
        {
          "internalType": "uint256",
          "name": "speakers",
          "type": "uint256"
        }
      ],
      "stateMutability": "view",
      "type": "function",
      "constant": true
    },
    {
      "inputs": [],
      "name": "rubberBands",
      "outputs": [
        {
          "internalType": "uint256",
          "name": "",
          "type": "uint256"
        }
      ],
      "stateMutability": "view",
      "type": "function",
      "constant": true
    },
    {
      "inputs": [],
      "name": "speakersProvider",
      "outputs": [
        {
          "internalType": "uint256",
          "name": "",
          "type": "uint256"
        }
      ],
      "stateMutability": "view",
      "type": "function",
      "constant": true
    },
    {
      "inputs": [],
      "name": "steelSheets",
      "outputs": [
        {
          "internalType": "uint256",
          "name": "",
          "type": "uint256"
        }
      ],
      "stateMutability": "view",
      "type": "function",
      "constant": true
    },
    {
      "inputs": [
        {
          "internalType": "uint256",
          "name": "amountOfShafts",
          "type": "uint256"
        },
        {
          "internalType": "uint256",
          "name": "amountOfControllers",
          "type": "uint256"
        },
        {
          "internalType": "uint256",
          "name": "amountOfDoors",
          "type": "uint256"
        },
        {
          "internalType": "uint256",
          "name": "amountOfButtons",
          "type": "uint256"
        },
        {
          "internalType": "uint256",
          "name": "amountOfDisplays",
          "type": "uint256"
        },
        {
          "internalType": "uint256",
          "name": "amountOfSpeakers",
          "type": "uint256"
        }
      ],
      "name": "createMaterials",
      "outputs": [
        {
          "internalType": "uint256",
          "name": "",
          "type": "uint256"
        },
        {
          "internalType": "uint256",
          "name": "",
          "type": "uint256"
        },
        {
          "internalType": "uint256",
          "name": "",
          "type": "uint256"
        },
        {
          "internalType": "uint256",
          "name": "",
          "type": "uint256"
        },
        {
          "internalType": "uint256",
          "name": "",
          "type": "uint256"
        },
        {
          "internalType": "uint256",
          "name": "",
          "type": "uint256"
        }
      ],
      "stateMutability": "nonpayable",
      "type": "function"
    }
  ],
  "bytecode": "0x6080604052600080556000600155600060025560006003556000600455600060055534801561002d57600080fd5b5061074b8061003d6000396000f3fe608060405234801561001057600080fd5b50600436106100935760003560e01c80637a8e8526116100665780637a8e8526146101275780637c37ba331461015c5780638a2788941461017a578063c312fa0a14610198578063ed727937146101b657610093565b8063452b14aa14610098578063588f83ed146100b65780636bcc4ad1146100d45780637453cf0214610109575b600080fd5b6100a06101d4565b6040516100ad919061054b565b60405180910390f35b6100be6101da565b6040516100cb919061054b565b60405180910390f35b6100ee60048036038101906100e991906104af565b6101e0565b60405161010096959493929190610566565b60405180910390f35b6101116103dd565b60405161011e919061054b565b60405180910390f35b610141600480360381019061013c9190610482565b6103e3565b60405161015396959493929190610566565b60405180910390f35b61016461041f565b604051610171919061054b565b60405180910390f35b610182610425565b60405161018f919061054b565b60405180910390f35b6101a061042b565b6040516101ad919061054b565b60405180910390f35b6101be610431565b6040516101cb919061054b565b60405180910390f35b60035481565b60045481565b6000806000806000806101f1610437565b60048d6101fe919061061d565b8160000181815250508a60068e610215919061061d565b61021f91906105c7565b81602001818152505060018b610235919061061d565b81604001818152505060088d61024b919061061d565b816060018181525050600688610261919061061d565b8160a00181815250508b898b61027791906105c7565b61028191906105c7565b816080018181525050806000015160008190555080602001516001819055508060400151600281905550806060015160038190555080608001516004819055508060a00151600581905550600660008154809291906102df90610681565b919050555080600760006006548152602001908152602001600020600082015181600001556020820151816001015560408201518160020155606082015181600301556080820151816004015560a082015181600501559050506008819080600181540180825580915050600190039060005260206000209060060201600090919091909150600082015181600001556020820151816001015560408201518160020155606082015181600301556080820151816004015560a08201518160050155505080600001518160200151826040015183606001518460a0015185608001519650965096509650965096505096509650965096509650969050565b60055481565b60076020528060005260406000206000915090508060000154908060010154908060020154908060030154908060040154908060050154905086565b60005481565b60015481565b60065481565b60025481565b6040518060c001604052806000815260200160008152602001600081526020016000815260200160008152602001600081525090565b60008135905061047c816106fe565b92915050565b600060208284031215610498576104976106f9565b5b60006104a68482850161046d565b91505092915050565b60008060008060008060c087890312156104cc576104cb6106f9565b5b60006104da89828a0161046d565b96505060206104eb89828a0161046d565b95505060406104fc89828a0161046d565b945050606061050d89828a0161046d565b935050608061051e89828a0161046d565b92505060a061052f89828a0161046d565b9150509295509295509295565b61054581610677565b82525050565b6000602082019050610560600083018461053c565b92915050565b600060c08201905061057b600083018961053c565b610588602083018861053c565b610595604083018761053c565b6105a2606083018661053c565b6105af608083018561053c565b6105bc60a083018461053c565b979650505050505050565b60006105d282610677565b91506105dd83610677565b9250827fffffffffffffffffffffffffffffffffffffffffffffffffffffffffffffffff03821115610612576106116106ca565b5b828201905092915050565b600061062882610677565b915061063383610677565b9250817fffffffffffffffffffffffffffffffffffffffffffffffffffffffffffffffff048311821515161561066c5761066b6106ca565b5b828202905092915050565b6000819050919050565b600061068c82610677565b91507fffffffffffffffffffffffffffffffffffffffffffffffffffffffffffffffff8214156106bf576106be6106ca565b5b600182019050919050565b7f4e487b7100000000000000000000000000000000000000000000000000000000600052601160045260246000fd5b600080fd5b61070781610677565b811461071257600080fd5b5056fea26469706673582212209aac39cac2f0670770eb8ed1ee03b803a5c8f3f1a661e19ca4a722258f305d8c64736f6c63430008060033",
  "immutableReferences": {},
  "source": "// SPDX-License-Identifier: MIT\npragma solidity >=0.4.22 <0.8.7;\n/* import \"@openzeppelin/contracts/token/ERC721/ERC721.sol\"; */\n\ncontract MaterialProvider {\n\n    uint public alumiBars = 0;\n    uint public steelSheets = 0;\n    uint public rubberBands = 0;\n    uint public lightBulbs = 0;\n    uint public leds = 0;\n    uint public speakersProvider = 0;\n\nstruct Materials{\n        uint aluminiumBars;\n        uint stainlessSteelSheets;\n        uint bumperRubberBands;\n        uint interiorLightBulbs;\n        uint displayLeds;\n        uint speakers;\n    }\n\n    uint public materialListCount;\n\n    mapping(uint => Materials) public materials;\n    Materials[] materialList;\n\n    function createMaterials(uint amountOfShafts, uint amountOfControllers, uint amountOfDoors, uint amountOfButtons, uint amountOfDisplays, uint amountOfSpeakers)\n    public returns (uint,uint,uint,uint,uint,uint){\n        Materials memory new_material;\n\n        new_material.aluminiumBars = amountOfShafts*4;\n        new_material.stainlessSteelSheets = amountOfShafts*6 + amountOfDoors;\n        new_material.bumperRubberBands = amountOfDoors*1;\n        new_material.interiorLightBulbs = amountOfShafts*8;\n        new_material.speakers = amountOfSpeakers *6;\n        new_material.displayLeds = amountOfButtons + amountOfDisplays + amountOfControllers ;\n\n        alumiBars = new_material.aluminiumBars;\n        steelSheets = new_material.stainlessSteelSheets;\n        rubberBands = new_material.bumperRubberBands;\n        lightBulbs = new_material.interiorLightBulbs;\n        leds = new_material.displayLeds;\n        speakersProvider = new_material.speakers;\n\n        materialListCount++;\n        materials[materialListCount] = new_material;\n        materialList.push(new_material);\n\n        return (new_material.aluminiumBars,new_material.stainlessSteelSheets,new_material.bumperRubberBands,new_material.interiorLightBulbs,new_material.speakers,new_material.displayLeds);\n\n    }\n\n}\n",
  "sourcePath": "/Users/usr1080/Desktop/Codeboxx/Week 12 - Blockchain/contracts/MaterialProvider.sol",
  "compiler": {
    "name": "solc",
    "version": "0.8.6+commit.11564f7e.Emscripten.clang"
  },
  "schemaVersion": "3.4.2",
  "updatedAt": "2021-08-06T04:11:54.235Z",
  "networkType": "ethereum",
  "devdoc": {
    "kind": "dev",
    "methods": {},
    "version": 1
  },
  "userdoc": {
    "kind": "user",
    "methods": {},
    "version": 1
  }
}