{
  "contractName": "ProjectOffice",
  "abi": [
    {
      "inputs": [],
      "stateMutability": "nonpayable",
      "type": "constructor"
    },
    {
      "anonymous": false,
      "inputs": [
        {
          "indexed": true,
          "internalType": "address",
          "name": "owner",
          "type": "address"
        },
        {
          "indexed": true,
          "internalType": "address",
          "name": "approved",
          "type": "address"
        },
        {
          "indexed": true,
          "internalType": "uint256",
          "name": "tokenId",
          "type": "uint256"
        }
      ],
      "name": "Approval",
      "type": "event"
    },
    {
      "anonymous": false,
      "inputs": [
        {
          "indexed": true,
          "internalType": "address",
          "name": "owner",
          "type": "address"
        },
        {
          "indexed": true,
          "internalType": "address",
          "name": "operator",
          "type": "address"
        },
        {
          "indexed": false,
          "internalType": "bool",
          "name": "approved",
          "type": "bool"
        }
      ],
      "name": "ApprovalForAll",
      "type": "event"
    },
    {
      "anonymous": false,
      "inputs": [
        {
          "indexed": true,
          "internalType": "address",
          "name": "from",
          "type": "address"
        },
        {
          "indexed": true,
          "internalType": "address",
          "name": "to",
          "type": "address"
        },
        {
          "indexed": true,
          "internalType": "uint256",
          "name": "tokenId",
          "type": "uint256"
        }
      ],
      "name": "Transfer",
      "type": "event"
    },
    {
      "inputs": [
        {
          "internalType": "address",
          "name": "to",
          "type": "address"
        },
        {
          "internalType": "uint256",
          "name": "tokenId",
          "type": "uint256"
        }
      ],
      "name": "approve",
      "outputs": [],
      "stateMutability": "nonpayable",
      "type": "function"
    },
    {
      "inputs": [
        {
          "internalType": "address",
          "name": "owner",
          "type": "address"
        }
      ],
      "name": "balanceOf",
      "outputs": [
        {
          "internalType": "uint256",
          "name": "",
          "type": "uint256"
        }
      ],
      "stateMutability": "view",
      "type": "function",
      "constant": true
    },
    {
      "inputs": [
        {
          "internalType": "uint256",
          "name": "",
          "type": "uint256"
        }
      ],
      "name": "components",
      "outputs": [
        {
          "internalType": "uint256",
          "name": "amountOfShafts",
          "type": "uint256"
        },
        {
          "internalType": "uint256",
          "name": "amountOfControllers",
          "type": "uint256"
        },
        {
          "internalType": "uint256",
          "name": "amountOfDoors",
          "type": "uint256"
        },
        {
          "internalType": "uint256",
          "name": "amountOfButtons",
          "type": "uint256"
        },
        {
          "internalType": "uint256",
          "name": "amountOfDisplays",
          "type": "uint256"
        }
      ],
      "stateMutability": "view",
      "type": "function",
      "constant": true
    },
    {
      "inputs": [
        {
          "internalType": "uint256",
          "name": "tokenId",
          "type": "uint256"
        }
      ],
      "name": "getApproved",
      "outputs": [
        {
          "internalType": "address",
          "name": "",
          "type": "address"
        }
      ],
      "stateMutability": "view",
      "type": "function",
      "constant": true
    },
    {
      "inputs": [
        {
          "internalType": "address",
          "name": "owner",
          "type": "address"
        },
        {
          "internalType": "address",
          "name": "operator",
          "type": "address"
        }
      ],
      "name": "isApprovedForAll",
      "outputs": [
        {
          "internalType": "bool",
          "name": "",
          "type": "bool"
        }
      ],
      "stateMutability": "view",
      "type": "function",
      "constant": true
    },
    {
      "inputs": [],
      "name": "name",
      "outputs": [
        {
          "internalType": "string",
          "name": "",
          "type": "string"
        }
      ],
      "stateMutability": "view",
      "type": "function",
      "constant": true
    },
    {
      "inputs": [],
      "name": "nbOrder",
      "outputs": [
        {
          "internalType": "uint256",
          "name": "",
          "type": "uint256"
        }
      ],
      "stateMutability": "view",
      "type": "function",
      "constant": true
    },
    {
      "inputs": [
        {
          "internalType": "uint256",
          "name": "",
          "type": "uint256"
        }
      ],
      "name": "orders",
      "outputs": [
        {
          "internalType": "string",
          "name": "",
          "type": "string"
        }
      ],
      "stateMutability": "view",
      "type": "function",
      "constant": true
    },
    {
      "inputs": [
        {
          "internalType": "uint256",
          "name": "",
          "type": "uint256"
        }
      ],
      "name": "ordersComponents",
      "outputs": [
        {
          "internalType": "uint256",
          "name": "amountOfShafts",
          "type": "uint256"
        },
        {
          "internalType": "uint256",
          "name": "amountOfControllers",
          "type": "uint256"
        },
        {
          "internalType": "uint256",
          "name": "amountOfDoors",
          "type": "uint256"
        },
        {
          "internalType": "uint256",
          "name": "amountOfButtons",
          "type": "uint256"
        },
        {
          "internalType": "uint256",
          "name": "amountOfDisplays",
          "type": "uint256"
        }
      ],
      "stateMutability": "view",
      "type": "function",
      "constant": true
    },
    {
      "inputs": [
        {
          "internalType": "uint256",
          "name": "tokenId",
          "type": "uint256"
        }
      ],
      "name": "ownerOf",
      "outputs": [
        {
          "internalType": "address",
          "name": "",
          "type": "address"
        }
      ],
      "stateMutability": "view",
      "type": "function",
      "constant": true
    },
    {
      "inputs": [
        {
          "internalType": "address",
          "name": "from",
          "type": "address"
        },
        {
          "internalType": "address",
          "name": "to",
          "type": "address"
        },
        {
          "internalType": "uint256",
          "name": "tokenId",
          "type": "uint256"
        }
      ],
      "name": "safeTransferFrom",
      "outputs": [],
      "stateMutability": "nonpayable",
      "type": "function"
    },
    {
      "inputs": [
        {
          "internalType": "address",
          "name": "from",
          "type": "address"
        },
        {
          "internalType": "address",
          "name": "to",
          "type": "address"
        },
        {
          "internalType": "uint256",
          "name": "tokenId",
          "type": "uint256"
        },
        {
          "internalType": "bytes",
          "name": "_data",
          "type": "bytes"
        }
      ],
      "name": "safeTransferFrom",
      "outputs": [],
      "stateMutability": "nonpayable",
      "type": "function"
    },
    {
      "inputs": [
        {
          "internalType": "address",
          "name": "operator",
          "type": "address"
        },
        {
          "internalType": "bool",
          "name": "approved",
          "type": "bool"
        }
      ],
      "name": "setApprovalForAll",
      "outputs": [],
      "stateMutability": "nonpayable",
      "type": "function"
    },
    {
      "inputs": [
        {
          "internalType": "bytes4",
          "name": "interfaceId",
          "type": "bytes4"
        }
      ],
      "name": "supportsInterface",
      "outputs": [
        {
          "internalType": "bool",
          "name": "",
          "type": "bool"
        }
      ],
      "stateMutability": "view",
      "type": "function",
      "constant": true
    },
    {
      "inputs": [],
      "name": "symbol",
      "outputs": [
        {
          "internalType": "string",
          "name": "",
          "type": "string"
        }
      ],
      "stateMutability": "view",
      "type": "function",
      "constant": true
    },
    {
      "inputs": [
        {
          "internalType": "uint256",
          "name": "tokenId",
          "type": "uint256"
        }
      ],
      "name": "tokenURI",
      "outputs": [
        {
          "internalType": "string",
          "name": "",
          "type": "string"
        }
      ],
      "stateMutability": "view",
      "type": "function",
      "constant": true
    },
    {
      "inputs": [
        {
          "internalType": "address",
          "name": "from",
          "type": "address"
        },
        {
          "internalType": "address",
          "name": "to",
          "type": "address"
        },
        {
          "internalType": "uint256",
          "name": "tokenId",
          "type": "uint256"
        }
      ],
      "name": "transferFrom",
      "outputs": [],
      "stateMutability": "nonpayable",
      "type": "function"
    },
    {
      "inputs": [
        {
          "internalType": "string",
          "name": "_order",
          "type": "string"
        },
        {
          "internalType": "uint256",
          "name": "batteries",
          "type": "uint256"
        },
        {
          "internalType": "uint256",
          "name": "columns",
          "type": "uint256"
        },
        {
          "internalType": "uint256",
          "name": "elevators",
          "type": "uint256"
        },
        {
          "internalType": "uint256",
          "name": "floors",
          "type": "uint256"
        }
      ],
      "name": "placeNewOrder",
      "outputs": [],
      "stateMutability": "nonpayable",
      "type": "function"
    },
    {
      "inputs": [],
      "name": "contractAddress",
      "outputs": [
        {
          "internalType": "address",
          "name": "",
          "type": "address"
        }
      ],
      "stateMutability": "view",
      "type": "function",
      "constant": true
    }
  ],
  "bytecode": "0x60806040526001600a553480156200001657600080fd5b506040518060400160405280600681526020017f4f726465727300000000000000000000000000000000000000000000000000008152506040518060400160405280600281526020017f4f4400000000000000000000000000000000000000000000000000000000000081525081600090805190602001906200009b929190620000bd565b508060019080519060200190620000b4929190620000bd565b505050620001d2565b828054620000cb906200016d565b90600052602060002090601f016020900481019282620000ef57600085556200013b565b82601f106200010a57805160ff19168380011785556200013b565b828001600101855582156200013b579182015b828111156200013a5782518255916020019190600101906200011d565b5b5090506200014a91906200014e565b5090565b5b80821115620001695760008160009055506001016200014f565b5090565b600060028204905060018216806200018657607f821691505b602082108114156200019d576200019c620001a3565b5b50919050565b7f4e487b7100000000000000000000000000000000000000000000000000000000600052602260045260246000fd5b612dd980620001e26000396000f3fe608060405234801561001057600080fd5b50600436106101215760003560e01c806369926dda116100ad578063b88d4fde11610071578063b88d4fde14610330578063c5d574fe1461034c578063c87b56dd14610380578063e985e9c5146103b0578063f6b4dfb4146103e057610121565b806369926dda1461026257806370a082311461029657806395d89b41146102c6578063a22cb465146102e4578063a85c38ef1461030057610121565b806323b872dd116100f457806323b872dd146101c057806332bc91bb146101dc57806342842e0e146101f857806344f0dc27146102145780636352211e1461023257610121565b806301ffc9a71461012657806306fdde0314610156578063081812fc14610174578063095ea7b3146101a4575b600080fd5b610140600480360381019061013b9190611e00565b6103fe565b60405161014d919061227a565b60405180910390f35b61015e6104e0565b60405161016b9190612295565b60405180910390f35b61018e60048036038101906101899190611ef1565b610572565b60405161019b9190612213565b60405180910390f35b6101be60048036038101906101b99190611dc0565b6105f7565b005b6101da60048036038101906101d59190611caa565b61070f565b005b6101f660048036038101906101f19190611e5a565b61076f565b005b610212600480360381019061020d9190611caa565b6109bf565b005b61021c6109df565b6040516102299190612477565b60405180910390f35b61024c60048036038101906102479190611ef1565b6109e5565b6040516102599190612213565b60405180910390f35b61027c60048036038101906102779190611ef1565b610a97565b60405161028d959493929190612492565b60405180910390f35b6102b060048036038101906102ab9190611c3d565b610add565b6040516102bd9190612477565b60405180910390f35b6102ce610b95565b6040516102db9190612295565b60405180910390f35b6102fe60048036038101906102f99190611d80565b610c27565b005b61031a60048036038101906103159190611ef1565b610da8565b6040516103279190612295565b60405180910390f35b61034a60048036038101906103459190611cfd565b610e54565b005b61036660048036038101906103619190611ef1565b610eb6565b604051610377959493929190612492565b60405180910390f35b61039a60048036038101906103959190611ef1565b610eec565b6040516103a79190612295565b60405180910390f35b6103ca60048036038101906103c59190611c6a565b610f93565b6040516103d7919061227a565b60405180910390f35b6103e8611027565b6040516103f59190612213565b60405180910390f35b60007f80ac58cd000000000000000000000000000000000000000000000000000000007bffffffffffffffffffffffffffffffffffffffffffffffffffffffff1916827bffffffffffffffffffffffffffffffffffffffffffffffffffffffff191614806104c957507f5b5e139f000000000000000000000000000000000000000000000000000000007bffffffffffffffffffffffffffffffffffffffffffffffffffffffff1916827bffffffffffffffffffffffffffffffffffffffffffffffffffffffff1916145b806104d957506104d88261102f565b5b9050919050565b6060600080546104ef9061277a565b80601f016020809104026020016040519081016040528092919081815260200182805461051b9061277a565b80156105685780601f1061053d57610100808354040283529160200191610568565b820191906000526020600020905b81548152906001019060200180831161054b57829003601f168201915b5050505050905090565b600061057d82611099565b6105bc576040517f08c379a00000000000000000000000000000000000000000000000000000000081526004016105b3906123d7565b60405180910390fd5b6004600083815260200190815260200160002060009054906101000a900473ffffffffffffffffffffffffffffffffffffffff169050919050565b6000610602826109e5565b90508073ffffffffffffffffffffffffffffffffffffffff168373ffffffffffffffffffffffffffffffffffffffff161415610673576040517f08c379a000000000000000000000000000000000000000000000000000000000815260040161066a90612437565b60405180910390fd5b8073ffffffffffffffffffffffffffffffffffffffff16610692611105565b73ffffffffffffffffffffffffffffffffffffffff1614806106c157506106c0816106bb611105565b610f93565b5b610700576040517f08c379a00000000000000000000000000000000000000000000000000000000081526004016106f790612357565b60405180910390fd5b61070a838361110d565b505050565b61072061071a611105565b826111c6565b61075f576040517f08c379a000000000000000000000000000000000000000000000000000000000815260040161075690612457565b60405180910390fd5b61076a8383836112a4565b505050565b61077b33600a54611500565b600160098660405161078d91906121d8565b908152602001604051809103902060006101000a81548160ff0219169083151502179055506001600a60008282546107c591906125af565b92505081905550600084846107da9190612636565b9050600081846107ea9190612636565b90506000600a54905081600660008381526020019081526020016000206000018190555086600660008381526020019081526020016000206001018190555081600660008381526020019081526020016000206002018190555081846108509190612636565b600660008381526020019081526020016000206003018190555081600660008381526020019081526020016000206004018190555060076040518060a001604052806006600085815260200190815260200160002060000154815260200160066000858152602001908152602001600020600101548152602001600660008581526020019081526020016000206002015481526020016006600085815260200190815260200160002060030154815260200160066000858152602001908152602001600020600401548152509080600181540180825580915050600190039060005260206000209060050201600090919091909150600082015181600001556020820151816001015560408201518160020155606082015181600301556080820151816004015550506008889080600181540180825580915050600190039060005260206000200160009091909190915090805190602001906109b4929190611a51565b505050505050505050565b6109da83838360405180602001604052806000815250610e54565b505050565b600a5481565b6000806002600084815260200190815260200160002060009054906101000a900473ffffffffffffffffffffffffffffffffffffffff169050600073ffffffffffffffffffffffffffffffffffffffff168173ffffffffffffffffffffffffffffffffffffffff161415610a8e576040517f08c379a0000000000000000000000000000000000000000000000000000000008152600401610a8590612397565b60405180910390fd5b80915050919050565b60078181548110610aa757600080fd5b90600052602060002090600502016000915090508060000154908060010154908060020154908060030154908060040154905085565b60008073ffffffffffffffffffffffffffffffffffffffff168273ffffffffffffffffffffffffffffffffffffffff161415610b4e576040517f08c379a0000000000000000000000000000000000000000000000000000000008152600401610b4590612377565b60405180910390fd5b600360008373ffffffffffffffffffffffffffffffffffffffff1673ffffffffffffffffffffffffffffffffffffffff168152602001908152602001600020549050919050565b606060018054610ba49061277a565b80601f0160208091040260200160405190810160405280929190818152602001828054610bd09061277a565b8015610c1d5780601f10610bf257610100808354040283529160200191610c1d565b820191906000526020600020905b815481529060010190602001808311610c0057829003601f168201915b5050505050905090565b610c2f611105565b73ffffffffffffffffffffffffffffffffffffffff168273ffffffffffffffffffffffffffffffffffffffff161415610c9d576040517f08c379a0000000000000000000000000000000000000000000000000000000008152600401610c9490612317565b60405180910390fd5b8060056000610caa611105565b73ffffffffffffffffffffffffffffffffffffffff1673ffffffffffffffffffffffffffffffffffffffff16815260200190815260200160002060008473ffffffffffffffffffffffffffffffffffffffff1673ffffffffffffffffffffffffffffffffffffffff16815260200190815260200160002060006101000a81548160ff0219169083151502179055508173ffffffffffffffffffffffffffffffffffffffff16610d57611105565b73ffffffffffffffffffffffffffffffffffffffff167f17307eab39ab6107e8899845ad3d59bd9653f200f220920489ca2b5937696c3183604051610d9c919061227a565b60405180910390a35050565b60088181548110610db857600080fd5b906000526020600020016000915090508054610dd39061277a565b80601f0160208091040260200160405190810160405280929190818152602001828054610dff9061277a565b8015610e4c5780601f10610e2157610100808354040283529160200191610e4c565b820191906000526020600020905b815481529060010190602001808311610e2f57829003601f168201915b505050505081565b610e65610e5f611105565b836111c6565b610ea4576040517f08c379a0000000000000000000000000000000000000000000000000000000008152600401610e9b90612457565b60405180910390fd5b610eb0848484846116ce565b50505050565b60066020528060005260406000206000915090508060000154908060010154908060020154908060030154908060040154905085565b6060610ef782611099565b610f36576040517f08c379a0000000000000000000000000000000000000000000000000000000008152600401610f2d90612417565b60405180910390fd5b6000610f4061172a565b90506000815111610f605760405180602001604052806000815250610f8b565b80610f6a84611741565b604051602001610f7b9291906121ef565b6040516020818303038152906040525b915050919050565b6000600560008473ffffffffffffffffffffffffffffffffffffffff1673ffffffffffffffffffffffffffffffffffffffff16815260200190815260200160002060008373ffffffffffffffffffffffffffffffffffffffff1673ffffffffffffffffffffffffffffffffffffffff16815260200190815260200160002060009054906101000a900460ff16905092915050565b600030905090565b60007f01ffc9a7000000000000000000000000000000000000000000000000000000007bffffffffffffffffffffffffffffffffffffffffffffffffffffffff1916827bffffffffffffffffffffffffffffffffffffffffffffffffffffffff1916149050919050565b60008073ffffffffffffffffffffffffffffffffffffffff166002600084815260200190815260200160002060009054906101000a900473ffffffffffffffffffffffffffffffffffffffff1673ffffffffffffffffffffffffffffffffffffffff1614159050919050565b600033905090565b816004600083815260200190815260200160002060006101000a81548173ffffffffffffffffffffffffffffffffffffffff021916908373ffffffffffffffffffffffffffffffffffffffff160217905550808273ffffffffffffffffffffffffffffffffffffffff16611180836109e5565b73ffffffffffffffffffffffffffffffffffffffff167f8c5be1e5ebec7d5bd14f71427d1e84f3dd0314c0f7b2291e5b200ac8c7c3b92560405160405180910390a45050565b60006111d182611099565b611210576040517f08c379a000000000000000000000000000000000000000000000000000000000815260040161120790612337565b60405180910390fd5b600061121b836109e5565b90508073ffffffffffffffffffffffffffffffffffffffff168473ffffffffffffffffffffffffffffffffffffffff16148061128a57508373ffffffffffffffffffffffffffffffffffffffff1661127284610572565b73ffffffffffffffffffffffffffffffffffffffff16145b8061129b575061129a8185610f93565b5b91505092915050565b8273ffffffffffffffffffffffffffffffffffffffff166112c4826109e5565b73ffffffffffffffffffffffffffffffffffffffff161461131a576040517f08c379a0000000000000000000000000000000000000000000000000000000008152600401611311906123f7565b60405180910390fd5b600073ffffffffffffffffffffffffffffffffffffffff168273ffffffffffffffffffffffffffffffffffffffff16141561138a576040517f08c379a0000000000000000000000000000000000000000000000000000000008152600401611381906122f7565b60405180910390fd5b6113958383836118a2565b6113a060008261110d565b6001600360008573ffffffffffffffffffffffffffffffffffffffff1673ffffffffffffffffffffffffffffffffffffffff16815260200190815260200160002060008282546113f09190612690565b925050819055506001600360008473ffffffffffffffffffffffffffffffffffffffff1673ffffffffffffffffffffffffffffffffffffffff168152602001908152602001600020600082825461144791906125af565b92505081905550816002600083815260200190815260200160002060006101000a81548173ffffffffffffffffffffffffffffffffffffffff021916908373ffffffffffffffffffffffffffffffffffffffff160217905550808273ffffffffffffffffffffffffffffffffffffffff168473ffffffffffffffffffffffffffffffffffffffff167fddf252ad1be2c89b69c2b068fc378daa952ba7f163c4a11628f55a4df523b3ef60405160405180910390a4505050565b600073ffffffffffffffffffffffffffffffffffffffff168273ffffffffffffffffffffffffffffffffffffffff161415611570576040517f08c379a0000000000000000000000000000000000000000000000000000000008152600401611567906123b7565b60405180910390fd5b61157981611099565b156115b9576040517f08c379a00000000000000000000000000000000000000000000000000000000081526004016115b0906122d7565b60405180910390fd5b6115c5600083836118a2565b6001600360008473ffffffffffffffffffffffffffffffffffffffff1673ffffffffffffffffffffffffffffffffffffffff168152602001908152602001600020600082825461161591906125af565b92505081905550816002600083815260200190815260200160002060006101000a81548173ffffffffffffffffffffffffffffffffffffffff021916908373ffffffffffffffffffffffffffffffffffffffff160217905550808273ffffffffffffffffffffffffffffffffffffffff16600073ffffffffffffffffffffffffffffffffffffffff167fddf252ad1be2c89b69c2b068fc378daa952ba7f163c4a11628f55a4df523b3ef60405160405180910390a45050565b6116d98484846112a4565b6116e5848484846118a7565b611724576040517f08c379a000000000000000000000000000000000000000000000000000000000815260040161171b906122b7565b60405180910390fd5b50505050565b606060405180602001604052806000815250905090565b60606000821415611789576040518060400160405280600181526020017f3000000000000000000000000000000000000000000000000000000000000000815250905061189d565b600082905060005b600082146117bb5780806117a4906127dd565b915050600a826117b49190612605565b9150611791565b60008167ffffffffffffffff8111156117d7576117d6612913565b5b6040519080825280601f01601f1916602001820160405280156118095781602001600182028036833780820191505090505b5090505b60008514611896576001826118229190612690565b9150600a856118319190612826565b603061183d91906125af565b60f81b818381518110611853576118526128e4565b5b60200101907effffffffffffffffffffffffffffffffffffffffffffffffffffffffffffff1916908160001a905350600a8561188f9190612605565b945061180d565b8093505050505b919050565b505050565b60006118c88473ffffffffffffffffffffffffffffffffffffffff16611a3e565b15611a31578373ffffffffffffffffffffffffffffffffffffffff1663150b7a026118f1611105565b8786866040518563ffffffff1660e01b8152600401611913949392919061222e565b602060405180830381600087803b15801561192d57600080fd5b505af192505050801561195e57506040513d601f19601f8201168201806040525081019061195b9190611e2d565b60015b6119e1573d806000811461198e576040519150601f19603f3d011682016040523d82523d6000602084013e611993565b606091505b506000815114156119d9576040517f08c379a00000000000000000000000000000000000000000000000000000000081526004016119d0906122b7565b60405180910390fd5b805181602001fd5b63150b7a0260e01b7bffffffffffffffffffffffffffffffffffffffffffffffffffffffff1916817bffffffffffffffffffffffffffffffffffffffffffffffffffffffff191614915050611a36565b600190505b949350505050565b600080823b905060008111915050919050565b828054611a5d9061277a565b90600052602060002090601f016020900481019282611a7f5760008555611ac6565b82601f10611a9857805160ff1916838001178555611ac6565b82800160010185558215611ac6579182015b82811115611ac5578251825591602001919060010190611aaa565b5b509050611ad39190611ad7565b5090565b5b80821115611af0576000816000905550600101611ad8565b5090565b6000611b07611b028461250a565b6124e5565b905082815260208101848484011115611b2357611b22612947565b5b611b2e848285612738565b509392505050565b6000611b49611b448461253b565b6124e5565b905082815260208101848484011115611b6557611b64612947565b5b611b70848285612738565b509392505050565b600081359050611b8781612d47565b92915050565b600081359050611b9c81612d5e565b92915050565b600081359050611bb181612d75565b92915050565b600081519050611bc681612d75565b92915050565b600082601f830112611be157611be0612942565b5b8135611bf1848260208601611af4565b91505092915050565b600082601f830112611c0f57611c0e612942565b5b8135611c1f848260208601611b36565b91505092915050565b600081359050611c3781612d8c565b92915050565b600060208284031215611c5357611c52612951565b5b6000611c6184828501611b78565b91505092915050565b60008060408385031215611c8157611c80612951565b5b6000611c8f85828601611b78565b9250506020611ca085828601611b78565b9150509250929050565b600080600060608486031215611cc357611cc2612951565b5b6000611cd186828701611b78565b9350506020611ce286828701611b78565b9250506040611cf386828701611c28565b9150509250925092565b60008060008060808587031215611d1757611d16612951565b5b6000611d2587828801611b78565b9450506020611d3687828801611b78565b9350506040611d4787828801611c28565b925050606085013567ffffffffffffffff811115611d6857611d6761294c565b5b611d7487828801611bcc565b91505092959194509250565b60008060408385031215611d9757611d96612951565b5b6000611da585828601611b78565b9250506020611db685828601611b8d565b9150509250929050565b60008060408385031215611dd757611dd6612951565b5b6000611de585828601611b78565b9250506020611df685828601611c28565b9150509250929050565b600060208284031215611e1657611e15612951565b5b6000611e2484828501611ba2565b91505092915050565b600060208284031215611e4357611e42612951565b5b6000611e5184828501611bb7565b91505092915050565b600080600080600060a08688031215611e7657611e75612951565b5b600086013567ffffffffffffffff811115611e9457611e9361294c565b5b611ea088828901611bfa565b9550506020611eb188828901611c28565b9450506040611ec288828901611c28565b9350506060611ed388828901611c28565b9250506080611ee488828901611c28565b9150509295509295909350565b600060208284031215611f0757611f06612951565b5b6000611f1584828501611c28565b91505092915050565b611f27816126c4565b82525050565b611f36816126d6565b82525050565b6000611f478261256c565b611f518185612582565b9350611f61818560208601612747565b611f6a81612956565b840191505092915050565b6000611f8082612577565b611f8a8185612593565b9350611f9a818560208601612747565b611fa381612956565b840191505092915050565b6000611fb982612577565b611fc381856125a4565b9350611fd3818560208601612747565b80840191505092915050565b6000611fec603283612593565b9150611ff782612967565b604082019050919050565b600061200f601c83612593565b915061201a826129b6565b602082019050919050565b6000612032602483612593565b915061203d826129df565b604082019050919050565b6000612055601983612593565b915061206082612a2e565b602082019050919050565b6000612078602c83612593565b915061208382612a57565b604082019050919050565b600061209b603883612593565b91506120a682612aa6565b604082019050919050565b60006120be602a83612593565b91506120c982612af5565b604082019050919050565b60006120e1602983612593565b91506120ec82612b44565b604082019050919050565b6000612104602083612593565b915061210f82612b93565b602082019050919050565b6000612127602c83612593565b915061213282612bbc565b604082019050919050565b600061214a602983612593565b915061215582612c0b565b604082019050919050565b600061216d602f83612593565b915061217882612c5a565b604082019050919050565b6000612190602183612593565b915061219b82612ca9565b604082019050919050565b60006121b3603183612593565b91506121be82612cf8565b604082019050919050565b6121d28161272e565b82525050565b60006121e48284611fae565b915081905092915050565b60006121fb8285611fae565b91506122078284611fae565b91508190509392505050565b60006020820190506122286000830184611f1e565b92915050565b60006080820190506122436000830187611f1e565b6122506020830186611f1e565b61225d60408301856121c9565b818103606083015261226f8184611f3c565b905095945050505050565b600060208201905061228f6000830184611f2d565b92915050565b600060208201905081810360008301526122af8184611f75565b905092915050565b600060208201905081810360008301526122d081611fdf565b9050919050565b600060208201905081810360008301526122f081612002565b9050919050565b6000602082019050818103600083015261231081612025565b9050919050565b6000602082019050818103600083015261233081612048565b9050919050565b600060208201905081810360008301526123508161206b565b9050919050565b600060208201905081810360008301526123708161208e565b9050919050565b60006020820190508181036000830152612390816120b1565b9050919050565b600060208201905081810360008301526123b0816120d4565b9050919050565b600060208201905081810360008301526123d0816120f7565b9050919050565b600060208201905081810360008301526123f08161211a565b9050919050565b600060208201905081810360008301526124108161213d565b9050919050565b6000602082019050818103600083015261243081612160565b9050919050565b6000602082019050818103600083015261245081612183565b9050919050565b60006020820190508181036000830152612470816121a6565b9050919050565b600060208201905061248c60008301846121c9565b92915050565b600060a0820190506124a760008301886121c9565b6124b460208301876121c9565b6124c160408301866121c9565b6124ce60608301856121c9565b6124db60808301846121c9565b9695505050505050565b60006124ef612500565b90506124fb82826127ac565b919050565b6000604051905090565b600067ffffffffffffffff82111561252557612524612913565b5b61252e82612956565b9050602081019050919050565b600067ffffffffffffffff82111561255657612555612913565b5b61255f82612956565b9050602081019050919050565b600081519050919050565b600081519050919050565b600082825260208201905092915050565b600082825260208201905092915050565b600081905092915050565b60006125ba8261272e565b91506125c58361272e565b9250827fffffffffffffffffffffffffffffffffffffffffffffffffffffffffffffffff038211156125fa576125f9612857565b5b828201905092915050565b60006126108261272e565b915061261b8361272e565b92508261262b5761262a612886565b5b828204905092915050565b60006126418261272e565b915061264c8361272e565b9250817fffffffffffffffffffffffffffffffffffffffffffffffffffffffffffffffff048311821515161561268557612684612857565b5b828202905092915050565b600061269b8261272e565b91506126a68361272e565b9250828210156126b9576126b8612857565b5b828203905092915050565b60006126cf8261270e565b9050919050565b60008115159050919050565b60007fffffffff0000000000000000000000000000000000000000000000000000000082169050919050565b600073ffffffffffffffffffffffffffffffffffffffff82169050919050565b6000819050919050565b82818337600083830152505050565b60005b8381101561276557808201518184015260208101905061274a565b83811115612774576000848401525b50505050565b6000600282049050600182168061279257607f821691505b602082108114156127a6576127a56128b5565b5b50919050565b6127b582612956565b810181811067ffffffffffffffff821117156127d4576127d3612913565b5b80604052505050565b60006127e88261272e565b91507fffffffffffffffffffffffffffffffffffffffffffffffffffffffffffffffff82141561281b5761281a612857565b5b600182019050919050565b60006128318261272e565b915061283c8361272e565b92508261284c5761284b612886565b5b828206905092915050565b7f4e487b7100000000000000000000000000000000000000000000000000000000600052601160045260246000fd5b7f4e487b7100000000000000000000000000000000000000000000000000000000600052601260045260246000fd5b7f4e487b7100000000000000000000000000000000000000000000000000000000600052602260045260246000fd5b7f4e487b7100000000000000000000000000000000000000000000000000000000600052603260045260246000fd5b7f4e487b7100000000000000000000000000000000000000000000000000000000600052604160045260246000fd5b600080fd5b600080fd5b600080fd5b600080fd5b6000601f19601f8301169050919050565b7f4552433732313a207472616e7366657220746f206e6f6e20455243373231526560008201527f63656976657220696d706c656d656e7465720000000000000000000000000000602082015250565b7f4552433732313a20746f6b656e20616c7265616479206d696e74656400000000600082015250565b7f4552433732313a207472616e7366657220746f20746865207a65726f2061646460008201527f7265737300000000000000000000000000000000000000000000000000000000602082015250565b7f4552433732313a20617070726f766520746f2063616c6c657200000000000000600082015250565b7f4552433732313a206f70657261746f7220717565727920666f72206e6f6e657860008201527f697374656e7420746f6b656e0000000000000000000000000000000000000000602082015250565b7f4552433732313a20617070726f76652063616c6c6572206973206e6f74206f7760008201527f6e6572206e6f7220617070726f76656420666f7220616c6c0000000000000000602082015250565b7f4552433732313a2062616c616e636520717565727920666f7220746865207a6560008201527f726f206164647265737300000000000000000000000000000000000000000000602082015250565b7f4552433732313a206f776e657220717565727920666f72206e6f6e657869737460008201527f656e7420746f6b656e0000000000000000000000000000000000000000000000602082015250565b7f4552433732313a206d696e7420746f20746865207a65726f2061646472657373600082015250565b7f4552433732313a20617070726f76656420717565727920666f72206e6f6e657860008201527f697374656e7420746f6b656e0000000000000000000000000000000000000000602082015250565b7f4552433732313a207472616e73666572206f6620746f6b656e2074686174206960008201527f73206e6f74206f776e0000000000000000000000000000000000000000000000602082015250565b7f4552433732314d657461646174613a2055524920717565727920666f72206e6f60008201527f6e6578697374656e7420746f6b656e0000000000000000000000000000000000602082015250565b7f4552433732313a20617070726f76616c20746f2063757272656e74206f776e6560008201527f7200000000000000000000000000000000000000000000000000000000000000602082015250565b7f4552433732313a207472616e736665722063616c6c6572206973206e6f74206f60008201527f776e6572206e6f7220617070726f766564000000000000000000000000000000602082015250565b612d50816126c4565b8114612d5b57600080fd5b50565b612d67816126d6565b8114612d7257600080fd5b50565b612d7e816126e2565b8114612d8957600080fd5b50565b612d958161272e565b8114612da057600080fd5b5056fea26469706673582212202950f88e84d246073dd788c0ffc1e726d5afce2cef6fea2010b47b37cba8938c64736f6c63430008060033",
  "immutableReferences": {},
  "source": "// SPDX-License-Identifier: MIT\npragma solidity >=0.4.22 <0.8.7;\nimport \"@openzeppelin/contracts/token/ERC721/ERC721.sol\";\ncontract ProjectOffice is ERC721 {\n\n    constructor() ERC721(\"Orders\", \"OD\") {\n    }\n    struct Components {\n\n        uint256 amountOfShafts;\n        uint256 amountOfControllers;\n        uint256 amountOfDoors;\n        uint256 amountOfButtons;\n        uint256 amountOfDisplays;\n\n    }\n\n    mapping(uint => Components) public components;\n\n\n    Components[] public ordersComponents;\n    string[] public orders;\n    mapping(string => bool) _orderExists;\n    uint public nbOrder = 1;\n\n    function placeNewOrder(string memory _order, uint batteries, uint columns, uint elevators, uint floors) public {\n        _mint(msg.sender, nbOrder);\n        _orderExists[_order] = true;\n        nbOrder += 1;\n\n        uint totalNbColumns = columns * batteries;\n        uint totalNbElevators = elevators * totalNbColumns;\n        uint id = nbOrder;\n\n            components[id].amountOfShafts = totalNbElevators;\n            components[id].amountOfControllers = batteries;\n            components[id].amountOfDoors = totalNbElevators;\n            components[id].amountOfButtons = floors * totalNbElevators;\n            components[id].amountOfDisplays = totalNbElevators;\n\n        ordersComponents.push(Components(components[id].amountOfShafts, components[id].amountOfControllers, components[id].amountOfDoors, components[id].amountOfButtons, components[id].amountOfDisplays));\n        orders.push(_order);\n    }\n\n    function contractAddress() public view returns(address) {\n        return address(this);\n    }\n\n}\n",
  "sourcePath": "/Users/usr1080/Desktop/Codeboxx/Week 12 - Blockchain/contracts/ProjectOffice.sol",
  "compiler": {
    "name": "solc",
    "version": "0.8.6+commit.11564f7e.Emscripten.clang"
  },
  "schemaVersion": "3.4.2",
  "updatedAt": "2021-08-06T04:00:47.239Z",
  "networkType": "ethereum",
  "devdoc": {
    "kind": "dev",
    "methods": {
      "approve(address,uint256)": {
        "details": "See {IERC721-approve}."
      },
      "balanceOf(address)": {
        "details": "See {IERC721-balanceOf}."
      },
      "getApproved(uint256)": {
        "details": "See {IERC721-getApproved}."
      },
      "isApprovedForAll(address,address)": {
        "details": "See {IERC721-isApprovedForAll}."
      },
      "name()": {
        "details": "See {IERC721Metadata-name}."
      },
      "ownerOf(uint256)": {
        "details": "See {IERC721-ownerOf}."
      },
      "safeTransferFrom(address,address,uint256)": {
        "details": "See {IERC721-safeTransferFrom}."
      },
      "safeTransferFrom(address,address,uint256,bytes)": {
        "details": "See {IERC721-safeTransferFrom}."
      },
      "setApprovalForAll(address,bool)": {
        "details": "See {IERC721-setApprovalForAll}."
      },
      "supportsInterface(bytes4)": {
        "details": "See {IERC165-supportsInterface}."
      },
      "symbol()": {
        "details": "See {IERC721Metadata-symbol}."
      },
      "tokenURI(uint256)": {
        "details": "See {IERC721Metadata-tokenURI}."
      },
      "transferFrom(address,address,uint256)": {
        "details": "See {IERC721-transferFrom}."
      }
    },
    "version": 1
  },
  "userdoc": {
    "kind": "user",
    "methods": {},
    "version": 1
  }
}