{
  "contractName": "SolutionManufacturing",
  "abi": [
    {
      "inputs": [],
      "stateMutability": "nonpayable",
      "type": "constructor"
    },
    {
      "anonymous": false,
      "inputs": [
        {
          "indexed": true,
          "internalType": "address",
          "name": "owner",
          "type": "address"
        },
        {
          "indexed": true,
          "internalType": "address",
          "name": "approved",
          "type": "address"
        },
        {
          "indexed": true,
          "internalType": "uint256",
          "name": "tokenId",
          "type": "uint256"
        }
      ],
      "name": "Approval",
      "type": "event"
    },
    {
      "anonymous": false,
      "inputs": [
        {
          "indexed": true,
          "internalType": "address",
          "name": "owner",
          "type": "address"
        },
        {
          "indexed": true,
          "internalType": "address",
          "name": "operator",
          "type": "address"
        },
        {
          "indexed": false,
          "internalType": "bool",
          "name": "approved",
          "type": "bool"
        }
      ],
      "name": "ApprovalForAll",
      "type": "event"
    },
    {
      "anonymous": false,
      "inputs": [
        {
          "indexed": true,
          "internalType": "address",
          "name": "from",
          "type": "address"
        },
        {
          "indexed": true,
          "internalType": "address",
          "name": "to",
          "type": "address"
        },
        {
          "indexed": true,
          "internalType": "uint256",
          "name": "tokenId",
          "type": "uint256"
        }
      ],
      "name": "Transfer",
      "type": "event"
    },
    {
      "inputs": [
        {
          "internalType": "address",
          "name": "to",
          "type": "address"
        },
        {
          "internalType": "uint256",
          "name": "tokenId",
          "type": "uint256"
        }
      ],
      "name": "approve",
      "outputs": [],
      "stateMutability": "nonpayable",
      "type": "function"
    },
    {
      "inputs": [
        {
          "internalType": "address",
          "name": "owner",
          "type": "address"
        }
      ],
      "name": "balanceOf",
      "outputs": [
        {
          "internalType": "uint256",
          "name": "",
          "type": "uint256"
        }
      ],
      "stateMutability": "view",
      "type": "function",
      "constant": true
    },
    {
      "inputs": [
        {
          "internalType": "uint256",
          "name": "",
          "type": "uint256"
        }
      ],
      "name": "doors",
      "outputs": [
        {
          "internalType": "string",
          "name": "",
          "type": "string"
        }
      ],
      "stateMutability": "view",
      "type": "function",
      "constant": true
    },
    {
      "inputs": [
        {
          "internalType": "uint256",
          "name": "tokenId",
          "type": "uint256"
        }
      ],
      "name": "getApproved",
      "outputs": [
        {
          "internalType": "address",
          "name": "",
          "type": "address"
        }
      ],
      "stateMutability": "view",
      "type": "function",
      "constant": true
    },
    {
      "inputs": [
        {
          "internalType": "address",
          "name": "owner",
          "type": "address"
        },
        {
          "internalType": "address",
          "name": "operator",
          "type": "address"
        }
      ],
      "name": "isApprovedForAll",
      "outputs": [
        {
          "internalType": "bool",
          "name": "",
          "type": "bool"
        }
      ],
      "stateMutability": "view",
      "type": "function",
      "constant": true
    },
    {
      "inputs": [],
      "name": "name",
      "outputs": [
        {
          "internalType": "string",
          "name": "",
          "type": "string"
        }
      ],
      "stateMutability": "view",
      "type": "function",
      "constant": true
    },
    {
      "inputs": [
        {
          "internalType": "uint256",
          "name": "tokenId",
          "type": "uint256"
        }
      ],
      "name": "ownerOf",
      "outputs": [
        {
          "internalType": "address",
          "name": "",
          "type": "address"
        }
      ],
      "stateMutability": "view",
      "type": "function",
      "constant": true
    },
    {
      "inputs": [
        {
          "internalType": "address",
          "name": "from",
          "type": "address"
        },
        {
          "internalType": "address",
          "name": "to",
          "type": "address"
        },
        {
          "internalType": "uint256",
          "name": "tokenId",
          "type": "uint256"
        }
      ],
      "name": "safeTransferFrom",
      "outputs": [],
      "stateMutability": "nonpayable",
      "type": "function"
    },
    {
      "inputs": [
        {
          "internalType": "address",
          "name": "from",
          "type": "address"
        },
        {
          "internalType": "address",
          "name": "to",
          "type": "address"
        },
        {
          "internalType": "uint256",
          "name": "tokenId",
          "type": "uint256"
        },
        {
          "internalType": "bytes",
          "name": "_data",
          "type": "bytes"
        }
      ],
      "name": "safeTransferFrom",
      "outputs": [],
      "stateMutability": "nonpayable",
      "type": "function"
    },
    {
      "inputs": [
        {
          "internalType": "address",
          "name": "operator",
          "type": "address"
        },
        {
          "internalType": "bool",
          "name": "approved",
          "type": "bool"
        }
      ],
      "name": "setApprovalForAll",
      "outputs": [],
      "stateMutability": "nonpayable",
      "type": "function"
    },
    {
      "inputs": [
        {
          "internalType": "uint256",
          "name": "",
          "type": "uint256"
        }
      ],
      "name": "solutionDoors",
      "outputs": [
        {
          "internalType": "uint256",
          "name": "nbOfAluminumBars",
          "type": "uint256"
        },
        {
          "internalType": "uint256",
          "name": "nbOfStainlessSheets",
          "type": "uint256"
        },
        {
          "internalType": "uint256",
          "name": "nbOfSprings",
          "type": "uint256"
        },
        {
          "internalType": "uint256",
          "name": "nbOfSensors",
          "type": "uint256"
        }
      ],
      "stateMutability": "view",
      "type": "function",
      "constant": true
    },
    {
      "inputs": [
        {
          "internalType": "bytes4",
          "name": "interfaceId",
          "type": "bytes4"
        }
      ],
      "name": "supportsInterface",
      "outputs": [
        {
          "internalType": "bool",
          "name": "",
          "type": "bool"
        }
      ],
      "stateMutability": "view",
      "type": "function",
      "constant": true
    },
    {
      "inputs": [],
      "name": "symbol",
      "outputs": [
        {
          "internalType": "string",
          "name": "",
          "type": "string"
        }
      ],
      "stateMutability": "view",
      "type": "function",
      "constant": true
    },
    {
      "inputs": [
        {
          "internalType": "uint256",
          "name": "tokenId",
          "type": "uint256"
        }
      ],
      "name": "tokenURI",
      "outputs": [
        {
          "internalType": "string",
          "name": "",
          "type": "string"
        }
      ],
      "stateMutability": "view",
      "type": "function",
      "constant": true
    },
    {
      "inputs": [
        {
          "internalType": "address",
          "name": "from",
          "type": "address"
        },
        {
          "internalType": "address",
          "name": "to",
          "type": "address"
        },
        {
          "internalType": "uint256",
          "name": "tokenId",
          "type": "uint256"
        }
      ],
      "name": "transferFrom",
      "outputs": [],
      "stateMutability": "nonpayable",
      "type": "function"
    },
    {
      "inputs": [
        {
          "internalType": "string",
          "name": "_door",
          "type": "string"
        },
        {
          "internalType": "uint256",
          "name": "alumBars1",
          "type": "uint256"
        },
        {
          "internalType": "uint256",
          "name": "steelSheets1",
          "type": "uint256"
        },
        {
          "internalType": "uint256",
          "name": "springs1",
          "type": "uint256"
        },
        {
          "internalType": "uint256",
          "name": "sensors1",
          "type": "uint256"
        }
      ],
      "name": "mintDoor",
      "outputs": [],
      "stateMutability": "nonpayable",
      "type": "function"
    },
    {
      "inputs": [],
      "name": "contractAddress",
      "outputs": [
        {
          "internalType": "address",
          "name": "",
          "type": "address"
        }
      ],
      "stateMutability": "view",
      "type": "function",
      "constant": true
    }
  ],
  "bytecode": "0x60806040523480156200001157600080fd5b506040518060400160405280601581526020017f536f6c7574696f6e4d616e75666163747572696e6700000000000000000000008152506040518060400160405280600281526020017f534d000000000000000000000000000000000000000000000000000000000000815250816000908051906020019062000096929190620000b8565b508060019080519060200190620000af929190620000b8565b505050620001cd565b828054620000c69062000168565b90600052602060002090601f016020900481019282620000ea576000855562000136565b82601f106200010557805160ff191683800117855562000136565b8280016001018555821562000136579182015b828111156200013557825182559160200191906001019062000118565b5b50905062000145919062000149565b5090565b5b80821115620001645760008160009055506001016200014a565b5090565b600060028204905060018216806200018157607f821691505b602082108114156200019857620001976200019e565b5b50919050565b7f4e487b7100000000000000000000000000000000000000000000000000000000600052602260045260246000fd5b612a3580620001dd6000396000f3fe608060405234801561001057600080fd5b506004361061010b5760003560e01c806370a08231116100a2578063b88d4fde11610071578063b88d4fde146102df578063c87b56dd146102fb578063d61730651461032b578063e985e9c514610347578063f6b4dfb4146103775761010b565b806370a082311461024557806395d89b4114610275578063a22cb46514610293578063af2f3635146102af5761010b565b80630efe5793116100de5780630efe5793146101aa57806323b872dd146101dd57806342842e0e146101f95780636352211e146102155761010b565b806301ffc9a71461011057806306fdde0314610140578063081812fc1461015e578063095ea7b31461018e575b600080fd5b61012a60048036038101906101259190611ac4565b610395565b6040516101379190611f3e565b60405180910390f35b610148610477565b6040516101559190611f59565b60405180910390f35b61017860048036038101906101739190611bb5565b610509565b6040516101859190611ed7565b60405180910390f35b6101a860048036038101906101a39190611a84565b61058e565b005b6101c460048036038101906101bf9190611bb5565b6106a6565b6040516101d49493929190612156565b60405180910390f35b6101f760048036038101906101f2919061196e565b6106e6565b005b610213600480360381019061020e919061196e565b610746565b005b61022f600480360381019061022a9190611bb5565b610766565b60405161023c9190611ed7565b60405180910390f35b61025f600480360381019061025a9190611901565b610818565b60405161026c919061213b565b60405180910390f35b61027d6108d0565b60405161028a9190611f59565b60405180910390f35b6102ad60048036038101906102a89190611a44565b610962565b005b6102c960048036038101906102c49190611bb5565b610ae3565b6040516102d69190611f59565b60405180910390f35b6102f960048036038101906102f491906119c1565b610b8f565b005b61031560048036038101906103109190611bb5565b610bf1565b6040516103229190611f59565b60405180910390f35b61034560048036038101906103409190611b1e565b610c98565b005b610361600480360381019061035c919061192e565b610cfa565b60405161036e9190611f3e565b60405180910390f35b61037f610d8e565b60405161038c9190611ed7565b60405180910390f35b60007f80ac58cd000000000000000000000000000000000000000000000000000000007bffffffffffffffffffffffffffffffffffffffffffffffffffffffff1916827bffffffffffffffffffffffffffffffffffffffffffffffffffffffff1916148061046057507f5b5e139f000000000000000000000000000000000000000000000000000000007bffffffffffffffffffffffffffffffffffffffffffffffffffffffff1916827bffffffffffffffffffffffffffffffffffffffffffffffffffffffff1916145b80610470575061046f82610d96565b5b9050919050565b606060008054610486906123d6565b80601f01602080910402602001604051908101604052809291908181526020018280546104b2906123d6565b80156104ff5780601f106104d4576101008083540402835291602001916104ff565b820191906000526020600020905b8154815290600101906020018083116104e257829003601f168201915b5050505050905090565b600061051482610e00565b610553576040517f08c379a000000000000000000000000000000000000000000000000000000000815260040161054a9061209b565b60405180910390fd5b6004600083815260200190815260200160002060009054906101000a900473ffffffffffffffffffffffffffffffffffffffff169050919050565b600061059982610766565b90508073ffffffffffffffffffffffffffffffffffffffff168373ffffffffffffffffffffffffffffffffffffffff16141561060a576040517f08c379a0000000000000000000000000000000000000000000000000000000008152600401610601906120fb565b60405180910390fd5b8073ffffffffffffffffffffffffffffffffffffffff16610629610e6c565b73ffffffffffffffffffffffffffffffffffffffff161480610658575061065781610652610e6c565b610cfa565b5b610697576040517f08c379a000000000000000000000000000000000000000000000000000000000815260040161068e9061201b565b60405180910390fd5b6106a18383610e74565b505050565b600681815481106106b657600080fd5b90600052602060002090600402016000915090508060000154908060010154908060020154908060030154905084565b6106f76106f1610e6c565b82610f2d565b610736576040517f08c379a000000000000000000000000000000000000000000000000000000000815260040161072d9061211b565b60405180910390fd5b61074183838361100b565b505050565b61076183838360405180602001604052806000815250610b8f565b505050565b6000806002600084815260200190815260200160002060009054906101000a900473ffffffffffffffffffffffffffffffffffffffff169050600073ffffffffffffffffffffffffffffffffffffffff168173ffffffffffffffffffffffffffffffffffffffff16141561080f576040517f08c379a00000000000000000000000000000000000000000000000000000000081526004016108069061205b565b60405180910390fd5b80915050919050565b60008073ffffffffffffffffffffffffffffffffffffffff168273ffffffffffffffffffffffffffffffffffffffff161415610889576040517f08c379a00000000000000000000000000000000000000000000000000000000081526004016108809061203b565b60405180910390fd5b600360008373ffffffffffffffffffffffffffffffffffffffff1673ffffffffffffffffffffffffffffffffffffffff168152602001908152602001600020549050919050565b6060600180546108df906123d6565b80601f016020809104026020016040519081016040528092919081815260200182805461090b906123d6565b80156109585780601f1061092d57610100808354040283529160200191610958565b820191906000526020600020905b81548152906001019060200180831161093b57829003601f168201915b5050505050905090565b61096a610e6c565b73ffffffffffffffffffffffffffffffffffffffff168273ffffffffffffffffffffffffffffffffffffffff1614156109d8576040517f08c379a00000000000000000000000000000000000000000000000000000000081526004016109cf90611fdb565b60405180910390fd5b80600560006109e5610e6c565b73ffffffffffffffffffffffffffffffffffffffff1673ffffffffffffffffffffffffffffffffffffffff16815260200190815260200160002060008473ffffffffffffffffffffffffffffffffffffffff1673ffffffffffffffffffffffffffffffffffffffff16815260200190815260200160002060006101000a81548160ff0219169083151502179055508173ffffffffffffffffffffffffffffffffffffffff16610a92610e6c565b73ffffffffffffffffffffffffffffffffffffffff167f17307eab39ab6107e8899845ad3d59bd9653f200f220920489ca2b5937696c3183604051610ad79190611f3e565b60405180910390a35050565b60088181548110610af357600080fd5b906000526020600020016000915090508054610b0e906123d6565b80601f0160208091040260200160405190810160405280929190818152602001828054610b3a906123d6565b8015610b875780601f10610b5c57610100808354040283529160200191610b87565b820191906000526020600020905b815481529060010190602001808311610b6a57829003601f168201915b505050505081565b610ba0610b9a610e6c565b83610f2d565b610bdf576040517f08c379a0000000000000000000000000000000000000000000000000000000008152600401610bd69061211b565b60405180910390fd5b610beb84848484611267565b50505050565b6060610bfc82610e00565b610c3b576040517f08c379a0000000000000000000000000000000000000000000000000000000008152600401610c32906120db565b60405180910390fd5b6000610c456112c3565b90506000815111610c655760405180602001604052806000815250610c90565b80610c6f846112da565b604051602001610c80929190611eb3565b6040516020818303038152906040525b915050919050565b60006006805490509050600181610caf9190612265565b90506001600987604051610cc39190611e9c565b908152602001604051809103902060006101000a81548160ff021916908315150217905550610cf2338261143b565b505050505050565b6000600560008473ffffffffffffffffffffffffffffffffffffffff1673ffffffffffffffffffffffffffffffffffffffff16815260200190815260200160002060008373ffffffffffffffffffffffffffffffffffffffff1673ffffffffffffffffffffffffffffffffffffffff16815260200190815260200160002060009054906101000a900460ff16905092915050565b600030905090565b60007f01ffc9a7000000000000000000000000000000000000000000000000000000007bffffffffffffffffffffffffffffffffffffffffffffffffffffffff1916827bffffffffffffffffffffffffffffffffffffffffffffffffffffffff1916149050919050565b60008073ffffffffffffffffffffffffffffffffffffffff166002600084815260200190815260200160002060009054906101000a900473ffffffffffffffffffffffffffffffffffffffff1673ffffffffffffffffffffffffffffffffffffffff1614159050919050565b600033905090565b816004600083815260200190815260200160002060006101000a81548173ffffffffffffffffffffffffffffffffffffffff021916908373ffffffffffffffffffffffffffffffffffffffff160217905550808273ffffffffffffffffffffffffffffffffffffffff16610ee783610766565b73ffffffffffffffffffffffffffffffffffffffff167f8c5be1e5ebec7d5bd14f71427d1e84f3dd0314c0f7b2291e5b200ac8c7c3b92560405160405180910390a45050565b6000610f3882610e00565b610f77576040517f08c379a0000000000000000000000000000000000000000000000000000000008152600401610f6e90611ffb565b60405180910390fd5b6000610f8283610766565b90508073ffffffffffffffffffffffffffffffffffffffff168473ffffffffffffffffffffffffffffffffffffffff161480610ff157508373ffffffffffffffffffffffffffffffffffffffff16610fd984610509565b73ffffffffffffffffffffffffffffffffffffffff16145b8061100257506110018185610cfa565b5b91505092915050565b8273ffffffffffffffffffffffffffffffffffffffff1661102b82610766565b73ffffffffffffffffffffffffffffffffffffffff1614611081576040517f08c379a0000000000000000000000000000000000000000000000000000000008152600401611078906120bb565b60405180910390fd5b600073ffffffffffffffffffffffffffffffffffffffff168273ffffffffffffffffffffffffffffffffffffffff1614156110f1576040517f08c379a00000000000000000000000000000000000000000000000000000000081526004016110e890611fbb565b60405180910390fd5b6110fc838383611609565b611107600082610e74565b6001600360008573ffffffffffffffffffffffffffffffffffffffff1673ffffffffffffffffffffffffffffffffffffffff168152602001908152602001600020600082825461115791906122ec565b925050819055506001600360008473ffffffffffffffffffffffffffffffffffffffff1673ffffffffffffffffffffffffffffffffffffffff16815260200190815260200160002060008282546111ae9190612265565b92505081905550816002600083815260200190815260200160002060006101000a81548173ffffffffffffffffffffffffffffffffffffffff021916908373ffffffffffffffffffffffffffffffffffffffff160217905550808273ffffffffffffffffffffffffffffffffffffffff168473ffffffffffffffffffffffffffffffffffffffff167fddf252ad1be2c89b69c2b068fc378daa952ba7f163c4a11628f55a4df523b3ef60405160405180910390a4505050565b61127284848461100b565b61127e8484848461160e565b6112bd576040517f08c379a00000000000000000000000000000000000000000000000000000000081526004016112b490611f7b565b60405180910390fd5b50505050565b606060405180602001604052806000815250905090565b60606000821415611322576040518060400160405280600181526020017f30000000000000000000000000000000000000000000000000000000000000008152509050611436565b600082905060005b6000821461135457808061133d90612439565b915050600a8261134d91906122bb565b915061132a565b60008167ffffffffffffffff8111156113705761136f61256f565b5b6040519080825280601f01601f1916602001820160405280156113a25781602001600182028036833780820191505090505b5090505b6000851461142f576001826113bb91906122ec565b9150600a856113ca9190612482565b60306113d69190612265565b60f81b8183815181106113ec576113eb612540565b5b60200101907effffffffffffffffffffffffffffffffffffffffffffffffffffffffffffff1916908160001a905350600a8561142891906122bb565b94506113a6565b8093505050505b919050565b600073ffffffffffffffffffffffffffffffffffffffff168273ffffffffffffffffffffffffffffffffffffffff1614156114ab576040517f08c379a00000000000000000000000000000000000000000000000000000000081526004016114a29061207b565b60405180910390fd5b6114b481610e00565b156114f4576040517f08c379a00000000000000000000000000000000000000000000000000000000081526004016114eb90611f9b565b60405180910390fd5b61150060008383611609565b6001600360008473ffffffffffffffffffffffffffffffffffffffff1673ffffffffffffffffffffffffffffffffffffffff16815260200190815260200160002060008282546115509190612265565b92505081905550816002600083815260200190815260200160002060006101000a81548173ffffffffffffffffffffffffffffffffffffffff021916908373ffffffffffffffffffffffffffffffffffffffff160217905550808273ffffffffffffffffffffffffffffffffffffffff16600073ffffffffffffffffffffffffffffffffffffffff167fddf252ad1be2c89b69c2b068fc378daa952ba7f163c4a11628f55a4df523b3ef60405160405180910390a45050565b505050565b600061162f8473ffffffffffffffffffffffffffffffffffffffff166117a5565b15611798578373ffffffffffffffffffffffffffffffffffffffff1663150b7a02611658610e6c565b8786866040518563ffffffff1660e01b815260040161167a9493929190611ef2565b602060405180830381600087803b15801561169457600080fd5b505af19250505080156116c557506040513d601f19601f820116820180604052508101906116c29190611af1565b60015b611748573d80600081146116f5576040519150601f19603f3d011682016040523d82523d6000602084013e6116fa565b606091505b50600081511415611740576040517f08c379a000000000000000000000000000000000000000000000000000000000815260040161173790611f7b565b60405180910390fd5b805181602001fd5b63150b7a0260e01b7bffffffffffffffffffffffffffffffffffffffffffffffffffffffff1916817bffffffffffffffffffffffffffffffffffffffffffffffffffffffff19161491505061179d565b600190505b949350505050565b600080823b905060008111915050919050565b60006117cb6117c6846121c0565b61219b565b9050828152602081018484840111156117e7576117e66125a3565b5b6117f2848285612394565b509392505050565b600061180d611808846121f1565b61219b565b905082815260208101848484011115611829576118286125a3565b5b611834848285612394565b509392505050565b60008135905061184b816129a3565b92915050565b600081359050611860816129ba565b92915050565b600081359050611875816129d1565b92915050565b60008151905061188a816129d1565b92915050565b600082601f8301126118a5576118a461259e565b5b81356118b58482602086016117b8565b91505092915050565b600082601f8301126118d3576118d261259e565b5b81356118e38482602086016117fa565b91505092915050565b6000813590506118fb816129e8565b92915050565b600060208284031215611917576119166125ad565b5b60006119258482850161183c565b91505092915050565b60008060408385031215611945576119446125ad565b5b60006119538582860161183c565b92505060206119648582860161183c565b9150509250929050565b600080600060608486031215611987576119866125ad565b5b60006119958682870161183c565b93505060206119a68682870161183c565b92505060406119b7868287016118ec565b9150509250925092565b600080600080608085870312156119db576119da6125ad565b5b60006119e98782880161183c565b94505060206119fa8782880161183c565b9350506040611a0b878288016118ec565b925050606085013567ffffffffffffffff811115611a2c57611a2b6125a8565b5b611a3887828801611890565b91505092959194509250565b60008060408385031215611a5b57611a5a6125ad565b5b6000611a698582860161183c565b9250506020611a7a85828601611851565b9150509250929050565b60008060408385031215611a9b57611a9a6125ad565b5b6000611aa98582860161183c565b9250506020611aba858286016118ec565b9150509250929050565b600060208284031215611ada57611ad96125ad565b5b6000611ae884828501611866565b91505092915050565b600060208284031215611b0757611b066125ad565b5b6000611b158482850161187b565b91505092915050565b600080600080600060a08688031215611b3a57611b396125ad565b5b600086013567ffffffffffffffff811115611b5857611b576125a8565b5b611b64888289016118be565b9550506020611b75888289016118ec565b9450506040611b86888289016118ec565b9350506060611b97888289016118ec565b9250506080611ba8888289016118ec565b9150509295509295909350565b600060208284031215611bcb57611bca6125ad565b5b6000611bd9848285016118ec565b91505092915050565b611beb81612320565b82525050565b611bfa81612332565b82525050565b6000611c0b82612222565b611c158185612238565b9350611c258185602086016123a3565b611c2e816125b2565b840191505092915050565b6000611c448261222d565b611c4e8185612249565b9350611c5e8185602086016123a3565b611c67816125b2565b840191505092915050565b6000611c7d8261222d565b611c87818561225a565b9350611c978185602086016123a3565b80840191505092915050565b6000611cb0603283612249565b9150611cbb826125c3565b604082019050919050565b6000611cd3601c83612249565b9150611cde82612612565b602082019050919050565b6000611cf6602483612249565b9150611d018261263b565b604082019050919050565b6000611d19601983612249565b9150611d248261268a565b602082019050919050565b6000611d3c602c83612249565b9150611d47826126b3565b604082019050919050565b6000611d5f603883612249565b9150611d6a82612702565b604082019050919050565b6000611d82602a83612249565b9150611d8d82612751565b604082019050919050565b6000611da5602983612249565b9150611db0826127a0565b604082019050919050565b6000611dc8602083612249565b9150611dd3826127ef565b602082019050919050565b6000611deb602c83612249565b9150611df682612818565b604082019050919050565b6000611e0e602983612249565b9150611e1982612867565b604082019050919050565b6000611e31602f83612249565b9150611e3c826128b6565b604082019050919050565b6000611e54602183612249565b9150611e5f82612905565b604082019050919050565b6000611e77603183612249565b9150611e8282612954565b604082019050919050565b611e968161238a565b82525050565b6000611ea88284611c72565b915081905092915050565b6000611ebf8285611c72565b9150611ecb8284611c72565b91508190509392505050565b6000602082019050611eec6000830184611be2565b92915050565b6000608082019050611f076000830187611be2565b611f146020830186611be2565b611f216040830185611e8d565b8181036060830152611f338184611c00565b905095945050505050565b6000602082019050611f536000830184611bf1565b92915050565b60006020820190508181036000830152611f738184611c39565b905092915050565b60006020820190508181036000830152611f9481611ca3565b9050919050565b60006020820190508181036000830152611fb481611cc6565b9050919050565b60006020820190508181036000830152611fd481611ce9565b9050919050565b60006020820190508181036000830152611ff481611d0c565b9050919050565b6000602082019050818103600083015261201481611d2f565b9050919050565b6000602082019050818103600083015261203481611d52565b9050919050565b6000602082019050818103600083015261205481611d75565b9050919050565b6000602082019050818103600083015261207481611d98565b9050919050565b6000602082019050818103600083015261209481611dbb565b9050919050565b600060208201905081810360008301526120b481611dde565b9050919050565b600060208201905081810360008301526120d481611e01565b9050919050565b600060208201905081810360008301526120f481611e24565b9050919050565b6000602082019050818103600083015261211481611e47565b9050919050565b6000602082019050818103600083015261213481611e6a565b9050919050565b60006020820190506121506000830184611e8d565b92915050565b600060808201905061216b6000830187611e8d565b6121786020830186611e8d565b6121856040830185611e8d565b6121926060830184611e8d565b95945050505050565b60006121a56121b6565b90506121b18282612408565b919050565b6000604051905090565b600067ffffffffffffffff8211156121db576121da61256f565b5b6121e4826125b2565b9050602081019050919050565b600067ffffffffffffffff82111561220c5761220b61256f565b5b612215826125b2565b9050602081019050919050565b600081519050919050565b600081519050919050565b600082825260208201905092915050565b600082825260208201905092915050565b600081905092915050565b60006122708261238a565b915061227b8361238a565b9250827fffffffffffffffffffffffffffffffffffffffffffffffffffffffffffffffff038211156122b0576122af6124b3565b5b828201905092915050565b60006122c68261238a565b91506122d18361238a565b9250826122e1576122e06124e2565b5b828204905092915050565b60006122f78261238a565b91506123028361238a565b925082821015612315576123146124b3565b5b828203905092915050565b600061232b8261236a565b9050919050565b60008115159050919050565b60007fffffffff0000000000000000000000000000000000000000000000000000000082169050919050565b600073ffffffffffffffffffffffffffffffffffffffff82169050919050565b6000819050919050565b82818337600083830152505050565b60005b838110156123c15780820151818401526020810190506123a6565b838111156123d0576000848401525b50505050565b600060028204905060018216806123ee57607f821691505b6020821081141561240257612401612511565b5b50919050565b612411826125b2565b810181811067ffffffffffffffff821117156124305761242f61256f565b5b80604052505050565b60006124448261238a565b91507fffffffffffffffffffffffffffffffffffffffffffffffffffffffffffffffff821415612477576124766124b3565b5b600182019050919050565b600061248d8261238a565b91506124988361238a565b9250826124a8576124a76124e2565b5b828206905092915050565b7f4e487b7100000000000000000000000000000000000000000000000000000000600052601160045260246000fd5b7f4e487b7100000000000000000000000000000000000000000000000000000000600052601260045260246000fd5b7f4e487b7100000000000000000000000000000000000000000000000000000000600052602260045260246000fd5b7f4e487b7100000000000000000000000000000000000000000000000000000000600052603260045260246000fd5b7f4e487b7100000000000000000000000000000000000000000000000000000000600052604160045260246000fd5b600080fd5b600080fd5b600080fd5b600080fd5b6000601f19601f8301169050919050565b7f4552433732313a207472616e7366657220746f206e6f6e20455243373231526560008201527f63656976657220696d706c656d656e7465720000000000000000000000000000602082015250565b7f4552433732313a20746f6b656e20616c7265616479206d696e74656400000000600082015250565b7f4552433732313a207472616e7366657220746f20746865207a65726f2061646460008201527f7265737300000000000000000000000000000000000000000000000000000000602082015250565b7f4552433732313a20617070726f766520746f2063616c6c657200000000000000600082015250565b7f4552433732313a206f70657261746f7220717565727920666f72206e6f6e657860008201527f697374656e7420746f6b656e0000000000000000000000000000000000000000602082015250565b7f4552433732313a20617070726f76652063616c6c6572206973206e6f74206f7760008201527f6e6572206e6f7220617070726f76656420666f7220616c6c0000000000000000602082015250565b7f4552433732313a2062616c616e636520717565727920666f7220746865207a6560008201527f726f206164647265737300000000000000000000000000000000000000000000602082015250565b7f4552433732313a206f776e657220717565727920666f72206e6f6e657869737460008201527f656e7420746f6b656e0000000000000000000000000000000000000000000000602082015250565b7f4552433732313a206d696e7420746f20746865207a65726f2061646472657373600082015250565b7f4552433732313a20617070726f76656420717565727920666f72206e6f6e657860008201527f697374656e7420746f6b656e0000000000000000000000000000000000000000602082015250565b7f4552433732313a207472616e73666572206f6620746f6b656e2074686174206960008201527f73206e6f74206f776e0000000000000000000000000000000000000000000000602082015250565b7f4552433732314d657461646174613a2055524920717565727920666f72206e6f60008201527f6e6578697374656e7420746f6b656e0000000000000000000000000000000000602082015250565b7f4552433732313a20617070726f76616c20746f2063757272656e74206f776e6560008201527f7200000000000000000000000000000000000000000000000000000000000000602082015250565b7f4552433732313a207472616e736665722063616c6c6572206973206e6f74206f60008201527f776e6572206e6f7220617070726f766564000000000000000000000000000000602082015250565b6129ac81612320565b81146129b757600080fd5b50565b6129c381612332565b81146129ce57600080fd5b50565b6129da8161233e565b81146129e557600080fd5b50565b6129f18161238a565b81146129fc57600080fd5b5056fea26469706673582212205bfb6049c61ddd6cb23898abc4e3c6cbb0b62e4e50a1afda3f5d47426bf3a35b64736f6c63430008060033",
  "immutableReferences": {},
  "source": "// SPDX-License-Identifier: MIT\npragma solidity ^0.8.0;\n\nimport \"@openzeppelin/contracts/token/ERC721/ERC721.sol\";\n\ncontract SolutionManufacturing is ERC721 {\n    constructor() ERC721 ('SolutionManufacturing' , 'SM') {\n    }\n    // Door[] public doors;\n    // Controller[] public controllers;\n    // ControlPanel[] public controlPanels;\n    // CallSign[] public callSigns;\n    \n    // uint256 doorId = 1;\n    // uint256 controllerId = 1;\n    // uint256 controlPanelId = 1;\n    // uint256 callSignId = 1;\n\n    struct Door {\n        uint256 nbOfAluminumBars;\n        uint256 nbOfStainlessSheets;\n        uint256 nbOfSprings;\n        uint256 nbOfSensors;\n    }\n    //  struct Controller {\n    //     uint256 id;\n    //     uint256 nbOfAluminumBars;\n    //     uint256 nbOfStainlessSheets;\n    //     uint256 nbOfBumpers;\n    //     uint256 nbOfLeds;\n    // }\n\n    // struct ControlPanel {\n    //     uint256 id;\n    //     uint256 nbOfAluminumBars;\n    //     uint256 nbOfStainlessSheets;\n    //     uint256 nbOfBumpers;\n    //     uint256 nbOfLeds;\n    // }\n\n    // struct CallSign {\n    //     uint256 id;\n    //     uint256 nbOfAluminumBars;\n    //     uint256 nbOfStainlessSheets;\n    //     uint256 nbOfBumpers;\n    //     uint256 nbOfLeds;\n    // }\n\n    // function addingDoors(\n    //     uint256 id,\n    //     uint256 nbOfAluminumBars,\n    //     uint256 nbOfStainlessSheets,\n    //     uint256 nbOfSprings,\n    //     uint256 nbOfSensors\n    // ) public {\n    //     for (uint256 i = 0; i < doors.length; i++) {\n    //         doors[doors.length].id = doorId;\n    //         doors[doors.length].nbOfAluminumBars = nbOfAluminumBars;\n    //         doors[doors.length].nbOfStainlessSheets = nbOfStainlessSheets;\n    //         doors[doors.length].nbOfSprings = nbOfSprings;\n    //         doors[doors.length ].nbOfSensors = nbOfSensors;\n    //         doorId++;\n    //     }\n    // }\n    // function calculatedDoors(uint256 id)\n    // public\n    // view\n    // returns (\n    //     uint256,\n    //     uint256,\n    //     uint256,\n    //     uint256,\n    //     uint256\n    // )\n    // {\n    //     for (uint256 i = 0; i < doors.length; i++) {\n    //         if (doors[i].id == id) {\n    //             return (\n    //                 doors[i].id,\n    //                 doors[i].nbOfAluminumBars,\n    //                 doors[i].nbOfStainlessSheets,\n    //                 doors[i].nbOfSprings,\n    //                 doors[i].nbOfSensors\n    //             );\n    //         }\n    //     }\n    // }\n\n    // function addingController(\n    //     uint256 nbOfAluminumBars,\n    //     uint256 nbOfStainlessSheets,\n    //     uint256 nbOfBumpers,\n    //     uint256 nbOfLeds\n    // ) public {\n    //     for (uint256 i = 0; i < controllers.length; i++) {\n    //     controllers[controllers.length].id = controllerId;\n    //     controllers[controllers.length].nbOfAluminumBars = nbOfAluminumBars;\n    //     controllers[controllers.length].nbOfStainlessSheets = nbOfStainlessSheets;\n    //     controllers[controllers.length].nbOfBumpers = nbOfBumpers;\n    //     controllers[controllers.length].nbOfLeds = nbOfLeds;\n    //     controllerId++;\n    //     }\n    // }\n    // function calculatedController(uint256 id)\n    // public\n    // view\n    // returns (\n    //     uint256,\n    //     uint256,\n    //     uint256,\n    //     uint256\n    // )\n    // {\n    //     for (uint256 i = 0; i < controllers.length; i++) {\n    //         if (controllers[i].id == id) {\n    //             return (\n    //                 controllers[i].id,\n    //                 controllers[i].nbOfAluminumBars,\n    //                 controllers[i].nbOfStainlessSheets,\n    //                 controllers[i].nbOfLeds\n    //             );\n    //         }\n    //     }\n    // }\n\n    // function addingControlPanel(\n    //     uint256 nbOfAluminumBars,\n    //     uint256 nbOfStainlessSheets,\n    //     uint256 nbOfLeds\n    // ) public {\n    //     for (uint256 i = 0; i < controlPanels.length; i++) {\n    //         controlPanels[controlPanels.length].id = controlPanelId;\n    //         controlPanels[controlPanels.length].nbOfAluminumBars = nbOfAluminumBars;\n    //         controlPanels[controlPanels.length].nbOfStainlessSheets = nbOfStainlessSheets;\n    //         controlPanels[controlPanels.length].nbOfLeds = nbOfLeds;\n    //         controlPanelId++;\n    //     }\n    // }\n\n    // function calculatedControlPanel(uint256 id)\n    // public\n    // view\n    // returns (\n    //     uint256,\n    //     uint256,\n    //     uint256,\n    //     uint256\n    // )\n    // {\n    //     for (uint256 i = 0; i < controlPanels.length; i++) {\n    //         if (controlPanels[i].id == id) {\n    //             return (\n    //                controlPanels[i].id,\n    //                controlPanels[i].nbOfAluminumBars,\n    //                controlPanels[i].nbOfStainlessSheets,\n    //                controlPanels[i].nbOfLeds\n    //             );\n    //         }\n    //     }\n    // }\n\n    // function addingCallSign(\n    //     uint256 nbOfAluminumBars,\n    //     uint256 nbOfStainlessSheets,\n    //     uint256 nbOfLeds\n    // ) public {\n    //     for (uint256 i = 0; i < callSigns.length; i++) {\n    //         callSigns[callSigns.length].id = callSignId;\n    //         callSigns[callSigns.length].nbOfAluminumBars = nbOfAluminumBars;\n    //         callSigns[callSigns.length].nbOfStainlessSheets = nbOfStainlessSheets;\n    //         callSigns[callSigns.length].nbOfLeds = nbOfLeds;\n    //         callSignId++;\n    //     }\n    // }\n\n    // function calculatedCallSign(uint256 id)\n    // public\n    // view\n    // returns (\n    //     uint256,\n    //     uint256,\n    //     uint256,\n    //     uint256\n    // )\n    // {\n    //     for (uint256 i = 0; i < callSigns.length; i++) {\n    //         if (callSigns[i].id == id) {\n    //             return (\n    //                callSigns[i].id,\n    //                callSigns[i].nbOfAluminumBars,\n    //                callSigns[i].nbOfStainlessSheets,\n    //                callSigns[i].nbOfLeds\n    //             );\n    //         }\n    //     }\n    // }\n\n    Door[] public solutionDoors;\n    mapping(uint => Door ) door;\n\n    string[] public doors ;\n    mapping(string => bool) doorsExists;\n\n    function mintDoor (string memory _door, uint alumBars1, uint steelSheets1, uint springs1, uint sensors1) public {\n        // require(!doorsExists[_door]);\n        uint id = solutionDoors.length;\n        id +=1 ;\n        doorsExists[_door] = true;\n        _mint(msg.sender, id);\n\n        uint256 varNbOfAluminumBars;\n        uint256 varNbOfStainlessSheets;\n        uint256 varNbOfSprings;\n        uint256 varNbOfSensors;\n        uint256 varNbOfBumpers;\n        uint256 varNbOfLeds;\n        \n        // for (uint256 i = 0; i < doors.length; i++) {\n        // solutionDoors[id].nbOfAluminumBars = varNbOfAluminumBars;\n        // solutionDoors[id].nbOfStainlessSheets = varNbOfStainlessSheets;\n        // solutionDoors[id].nbOfSprings = varNbOfSprings;\n        // solutionDoors[id].nbOfSensors = varNbOfSensors; \n        // }\n        // solutionDoors.push(Door(door[id].nbOfAluminumBars,door[id].nbOfStainlessSheets,door[id].nbOfSprings,door[id].nbOfSensors));\n        // doors.push(_door);\n        \n    }\n\n    function contractAddress() public view returns(address) {\n        return address(this);\n    }\n\n    // function calculatedD0ors(uint256 id) public view returns (uint256, uint256, uint256, uint256 )\n    // {\n    //     for (uint256 i = 0; i < doors.length; i++) {\n    //         if (doors[i].id == id) {\n    //             return (\n    //                 doors[i].id,\n    //                 doors[i].nbOfAluminumBars,\n    //                 doors[i].nbOfStainlessSheets,\n    //                 doors[i].nbOfSprings,\n    //                 doors[i].nbOfSensors\n    //             );\n    //         }\n    //     }\n    // }\n\n}\n",
  "sourcePath": "/Users/ashkan/Desktop/Codeboxx/w12/Rocket_Elevators_Blockchain/contracts/SolutionManufacturing.sol",
  "compiler": {
    "name": "solc",
    "version": "0.8.6+commit.11564f7e.Emscripten.clang"
  },
  "schemaVersion": "3.4.2",
  "updatedAt": "2021-08-05T19:22:27.859Z",
  "networkType": "ethereum",
  "devdoc": {
    "kind": "dev",
    "methods": {
      "approve(address,uint256)": {
        "details": "See {IERC721-approve}."
      },
      "balanceOf(address)": {
        "details": "See {IERC721-balanceOf}."
      },
      "getApproved(uint256)": {
        "details": "See {IERC721-getApproved}."
      },
      "isApprovedForAll(address,address)": {
        "details": "See {IERC721-isApprovedForAll}."
      },
      "name()": {
        "details": "See {IERC721Metadata-name}."
      },
      "ownerOf(uint256)": {
        "details": "See {IERC721-ownerOf}."
      },
      "safeTransferFrom(address,address,uint256)": {
        "details": "See {IERC721-safeTransferFrom}."
      },
      "safeTransferFrom(address,address,uint256,bytes)": {
        "details": "See {IERC721-safeTransferFrom}."
      },
      "setApprovalForAll(address,bool)": {
        "details": "See {IERC721-setApprovalForAll}."
      },
      "supportsInterface(bytes4)": {
        "details": "See {IERC165-supportsInterface}."
      },
      "symbol()": {
        "details": "See {IERC721Metadata-symbol}."
      },
      "tokenURI(uint256)": {
        "details": "See {IERC721Metadata-tokenURI}."
      },
      "transferFrom(address,address,uint256)": {
        "details": "See {IERC721-transferFrom}."
      }
    },
    "version": 1
  },
  "userdoc": {
    "kind": "user",
    "methods": {},
    "version": 1
  }
}