{
  "contractName": "SolutionManufacturing",
  "abi": [
    {
      "inputs": [],
      "stateMutability": "nonpayable",
      "type": "constructor"
    },
    {
      "anonymous": false,
      "inputs": [
        {
          "indexed": true,
          "internalType": "address",
          "name": "owner",
          "type": "address"
        },
        {
          "indexed": true,
          "internalType": "address",
          "name": "approved",
          "type": "address"
        },
        {
          "indexed": true,
          "internalType": "uint256",
          "name": "tokenId",
          "type": "uint256"
        }
      ],
      "name": "Approval",
      "type": "event"
    },
    {
      "anonymous": false,
      "inputs": [
        {
          "indexed": true,
          "internalType": "address",
          "name": "owner",
          "type": "address"
        },
        {
          "indexed": true,
          "internalType": "address",
          "name": "operator",
          "type": "address"
        },
        {
          "indexed": false,
          "internalType": "bool",
          "name": "approved",
          "type": "bool"
        }
      ],
      "name": "ApprovalForAll",
      "type": "event"
    },
    {
      "anonymous": false,
      "inputs": [
        {
          "indexed": true,
          "internalType": "address",
          "name": "from",
          "type": "address"
        },
        {
          "indexed": true,
          "internalType": "address",
          "name": "to",
          "type": "address"
        },
        {
          "indexed": true,
          "internalType": "uint256",
          "name": "tokenId",
          "type": "uint256"
        }
      ],
      "name": "Transfer",
      "type": "event"
    },
    {
      "inputs": [
        {
          "internalType": "address",
          "name": "to",
          "type": "address"
        },
        {
          "internalType": "uint256",
          "name": "tokenId",
          "type": "uint256"
        }
      ],
      "name": "approve",
      "outputs": [],
      "stateMutability": "nonpayable",
      "type": "function"
    },
    {
      "inputs": [
        {
          "internalType": "address",
          "name": "owner",
          "type": "address"
        }
      ],
      "name": "balanceOf",
      "outputs": [
        {
          "internalType": "uint256",
          "name": "",
          "type": "uint256"
        }
      ],
      "stateMutability": "view",
      "type": "function",
      "constant": true
    },
    {
      "inputs": [
        {
          "internalType": "uint256",
          "name": "",
          "type": "uint256"
        }
      ],
      "name": "doors",
      "outputs": [
        {
          "internalType": "string",
          "name": "",
          "type": "string"
        }
      ],
      "stateMutability": "view",
      "type": "function",
      "constant": true
    },
    {
      "inputs": [
        {
          "internalType": "uint256",
          "name": "tokenId",
          "type": "uint256"
        }
      ],
      "name": "getApproved",
      "outputs": [
        {
          "internalType": "address",
          "name": "",
          "type": "address"
        }
      ],
      "stateMutability": "view",
      "type": "function",
      "constant": true
    },
    {
      "inputs": [
        {
          "internalType": "address",
          "name": "owner",
          "type": "address"
        },
        {
          "internalType": "address",
          "name": "operator",
          "type": "address"
        }
      ],
      "name": "isApprovedForAll",
      "outputs": [
        {
          "internalType": "bool",
          "name": "",
          "type": "bool"
        }
      ],
      "stateMutability": "view",
      "type": "function",
      "constant": true
    },
    {
      "inputs": [],
      "name": "name",
      "outputs": [
        {
          "internalType": "string",
          "name": "",
          "type": "string"
        }
      ],
      "stateMutability": "view",
      "type": "function",
      "constant": true
    },
    {
      "inputs": [
        {
          "internalType": "uint256",
          "name": "tokenId",
          "type": "uint256"
        }
      ],
      "name": "ownerOf",
      "outputs": [
        {
          "internalType": "address",
          "name": "",
          "type": "address"
        }
      ],
      "stateMutability": "view",
      "type": "function",
      "constant": true
    },
    {
      "inputs": [
        {
          "internalType": "address",
          "name": "from",
          "type": "address"
        },
        {
          "internalType": "address",
          "name": "to",
          "type": "address"
        },
        {
          "internalType": "uint256",
          "name": "tokenId",
          "type": "uint256"
        }
      ],
      "name": "safeTransferFrom",
      "outputs": [],
      "stateMutability": "nonpayable",
      "type": "function"
    },
    {
      "inputs": [
        {
          "internalType": "address",
          "name": "from",
          "type": "address"
        },
        {
          "internalType": "address",
          "name": "to",
          "type": "address"
        },
        {
          "internalType": "uint256",
          "name": "tokenId",
          "type": "uint256"
        },
        {
          "internalType": "bytes",
          "name": "_data",
          "type": "bytes"
        }
      ],
      "name": "safeTransferFrom",
      "outputs": [],
      "stateMutability": "nonpayable",
      "type": "function"
    },
    {
      "inputs": [
        {
          "internalType": "address",
          "name": "operator",
          "type": "address"
        },
        {
          "internalType": "bool",
          "name": "approved",
          "type": "bool"
        }
      ],
      "name": "setApprovalForAll",
      "outputs": [],
      "stateMutability": "nonpayable",
      "type": "function"
    },
    {
      "inputs": [
        {
          "internalType": "uint256",
          "name": "",
          "type": "uint256"
        }
      ],
      "name": "solutionDoors",
      "outputs": [
        {
          "internalType": "uint256",
          "name": "nbOfAluminumBars",
          "type": "uint256"
        },
        {
          "internalType": "uint256",
          "name": "nbOfStainlessSheets",
          "type": "uint256"
        },
        {
          "internalType": "uint256",
          "name": "nbOfSprings",
          "type": "uint256"
        },
        {
          "internalType": "uint256",
          "name": "nbOfSensors",
          "type": "uint256"
        }
      ],
      "stateMutability": "view",
      "type": "function",
      "constant": true
    },
    {
      "inputs": [
        {
          "internalType": "bytes4",
          "name": "interfaceId",
          "type": "bytes4"
        }
      ],
      "name": "supportsInterface",
      "outputs": [
        {
          "internalType": "bool",
          "name": "",
          "type": "bool"
        }
      ],
      "stateMutability": "view",
      "type": "function",
      "constant": true
    },
    {
      "inputs": [],
      "name": "symbol",
      "outputs": [
        {
          "internalType": "string",
          "name": "",
          "type": "string"
        }
      ],
      "stateMutability": "view",
      "type": "function",
      "constant": true
    },
    {
      "inputs": [
        {
          "internalType": "uint256",
          "name": "tokenId",
          "type": "uint256"
        }
      ],
      "name": "tokenURI",
      "outputs": [
        {
          "internalType": "string",
          "name": "",
          "type": "string"
        }
      ],
      "stateMutability": "view",
      "type": "function",
      "constant": true
    },
    {
      "inputs": [
        {
          "internalType": "address",
          "name": "from",
          "type": "address"
        },
        {
          "internalType": "address",
          "name": "to",
          "type": "address"
        },
        {
          "internalType": "uint256",
          "name": "tokenId",
          "type": "uint256"
        }
      ],
      "name": "transferFrom",
      "outputs": [],
      "stateMutability": "nonpayable",
      "type": "function"
    },
    {
      "inputs": [
        {
          "internalType": "uint256",
          "name": "alumBars1",
          "type": "uint256"
        },
        {
          "internalType": "uint256",
          "name": "steelSheets1",
          "type": "uint256"
        },
        {
          "internalType": "uint256",
          "name": "springs1",
          "type": "uint256"
        },
        {
          "internalType": "uint256",
          "name": "sensors1",
          "type": "uint256"
        }
      ],
      "name": "mintDoor",
      "outputs": [],
      "stateMutability": "nonpayable",
      "type": "function"
    },
    {
      "inputs": [],
      "name": "contractAddress",
      "outputs": [
        {
          "internalType": "address",
          "name": "",
          "type": "address"
        }
      ],
      "stateMutability": "view",
      "type": "function",
      "constant": true
    }
  ],
  "bytecode": "0x60806040523480156200001157600080fd5b506040518060400160405280601581526020017f536f6c7574696f6e4d616e75666163747572696e6700000000000000000000008152506040518060400160405280600281526020017f534d000000000000000000000000000000000000000000000000000000000000815250816000908051906020019062000096929190620000b8565b508060019080519060200190620000af929190620000b8565b505050620001cd565b828054620000c69062000168565b90600052602060002090601f016020900481019282620000ea576000855562000136565b82601f106200010557805160ff191683800117855562000136565b8280016001018555821562000136579182015b828111156200013557825182559160200191906001019062000118565b5b50905062000145919062000149565b5090565b5b80821115620001645760008160009055506001016200014a565b5090565b600060028204905060018216806200018157607f821691505b602082108114156200019857620001976200019e565b5b50919050565b7f4e487b7100000000000000000000000000000000000000000000000000000000600052602260045260246000fd5b6129f280620001dd6000396000f3fe608060405234801561001057600080fd5b506004361061010b5760003560e01c80636352211e116100a2578063af2f363511610071578063af2f3635146102cb578063b88d4fde146102fb578063c87b56dd14610317578063e985e9c514610347578063f6b4dfb4146103775761010b565b80636352211e1461023157806370a082311461026157806395d89b4114610291578063a22cb465146102af5761010b565b806309918e30116100de57806309918e30146101aa5780630efe5793146101c657806323b872dd146101f957806342842e0e146102155761010b565b806301ffc9a71461011057806306fdde0314610140578063081812fc1461015e578063095ea7b31461018e575b600080fd5b61012a60048036038101906101259190611af9565b610395565b6040516101379190611f2c565b60405180910390f35b610148610477565b6040516101559190611f47565b60405180910390f35b61017860048036038101906101739190611b53565b610509565b6040516101859190611ec5565b60405180910390f35b6101a860048036038101906101a39190611ab9565b61058e565b005b6101c460048036038101906101bf9190611b80565b6106a6565b005b6101e060048036038101906101db9190611b53565b6107ad565b6040516101f09493929190612144565b60405180910390f35b610213600480360381019061020e91906119a3565b6107ed565b005b61022f600480360381019061022a91906119a3565b61084d565b005b61024b60048036038101906102469190611b53565b61086d565b6040516102589190611ec5565b60405180910390f35b61027b60048036038101906102769190611936565b61091f565b6040516102889190612129565b60405180910390f35b6102996109d7565b6040516102a69190611f47565b60405180910390f35b6102c960048036038101906102c49190611a79565b610a69565b005b6102e560048036038101906102e09190611b53565b610bea565b6040516102f29190611f47565b60405180910390f35b610315600480360381019061031091906119f6565b610c96565b005b610331600480360381019061032c9190611b53565b610cf8565b60405161033e9190611f47565b60405180910390f35b610361600480360381019061035c9190611963565b610d9f565b60405161036e9190611f2c565b60405180910390f35b61037f610e33565b60405161038c9190611ec5565b60405180910390f35b60007f80ac58cd000000000000000000000000000000000000000000000000000000007bffffffffffffffffffffffffffffffffffffffffffffffffffffffff1916827bffffffffffffffffffffffffffffffffffffffffffffffffffffffff1916148061046057507f5b5e139f000000000000000000000000000000000000000000000000000000007bffffffffffffffffffffffffffffffffffffffffffffffffffffffff1916827bffffffffffffffffffffffffffffffffffffffffffffffffffffffff1916145b80610470575061046f82610e3b565b5b9050919050565b60606000805461048690612393565b80601f01602080910402602001604051908101604052809291908181526020018280546104b290612393565b80156104ff5780601f106104d4576101008083540402835291602001916104ff565b820191906000526020600020905b8154815290600101906020018083116104e257829003601f168201915b5050505050905090565b600061051482610ea5565b610553576040517f08c379a000000000000000000000000000000000000000000000000000000000815260040161054a90612089565b60405180910390fd5b6004600083815260200190815260200160002060009054906101000a900473ffffffffffffffffffffffffffffffffffffffff169050919050565b60006105998261086d565b90508073ffffffffffffffffffffffffffffffffffffffff168373ffffffffffffffffffffffffffffffffffffffff16141561060a576040517f08c379a0000000000000000000000000000000000000000000000000000000008152600401610601906120e9565b60405180910390fd5b8073ffffffffffffffffffffffffffffffffffffffff16610629610f11565b73ffffffffffffffffffffffffffffffffffffffff161480610658575061065781610652610f11565b610d9f565b5b610697576040517f08c379a000000000000000000000000000000000000000000000000000000000815260040161068e90612009565b60405180910390fd5b6106a18383610f19565b505050565b600060068054905090506001816106bd9190612222565b90506106c93382610fd2565b60008060008060008060066040518060800160405280600760008b8152602001908152602001600020600001548152602001600760008b8152602001908152602001600020600101548152602001600760008b8152602001908152602001600020600201548152602001600760008b81526020019081526020016000206003015481525090806001815401808255809150506001900390600052602060002090600402016000909190919091506000820151816000015560208201518160010155604082015181600201556060820151816003015550505050505050505050505050565b600681815481106107bd57600080fd5b90600052602060002090600402016000915090508060000154908060010154908060020154908060030154905084565b6107fe6107f8610f11565b826111a0565b61083d576040517f08c379a000000000000000000000000000000000000000000000000000000000815260040161083490612109565b60405180910390fd5b61084883838361127e565b505050565b61086883838360405180602001604052806000815250610c96565b505050565b6000806002600084815260200190815260200160002060009054906101000a900473ffffffffffffffffffffffffffffffffffffffff169050600073ffffffffffffffffffffffffffffffffffffffff168173ffffffffffffffffffffffffffffffffffffffff161415610916576040517f08c379a000000000000000000000000000000000000000000000000000000000815260040161090d90612049565b60405180910390fd5b80915050919050565b60008073ffffffffffffffffffffffffffffffffffffffff168273ffffffffffffffffffffffffffffffffffffffff161415610990576040517f08c379a000000000000000000000000000000000000000000000000000000000815260040161098790612029565b60405180910390fd5b600360008373ffffffffffffffffffffffffffffffffffffffff1673ffffffffffffffffffffffffffffffffffffffff168152602001908152602001600020549050919050565b6060600180546109e690612393565b80601f0160208091040260200160405190810160405280929190818152602001828054610a1290612393565b8015610a5f5780601f10610a3457610100808354040283529160200191610a5f565b820191906000526020600020905b815481529060010190602001808311610a4257829003601f168201915b5050505050905090565b610a71610f11565b73ffffffffffffffffffffffffffffffffffffffff168273ffffffffffffffffffffffffffffffffffffffff161415610adf576040517f08c379a0000000000000000000000000000000000000000000000000000000008152600401610ad690611fc9565b60405180910390fd5b8060056000610aec610f11565b73ffffffffffffffffffffffffffffffffffffffff1673ffffffffffffffffffffffffffffffffffffffff16815260200190815260200160002060008473ffffffffffffffffffffffffffffffffffffffff1673ffffffffffffffffffffffffffffffffffffffff16815260200190815260200160002060006101000a81548160ff0219169083151502179055508173ffffffffffffffffffffffffffffffffffffffff16610b99610f11565b73ffffffffffffffffffffffffffffffffffffffff167f17307eab39ab6107e8899845ad3d59bd9653f200f220920489ca2b5937696c3183604051610bde9190611f2c565b60405180910390a35050565b60088181548110610bfa57600080fd5b906000526020600020016000915090508054610c1590612393565b80601f0160208091040260200160405190810160405280929190818152602001828054610c4190612393565b8015610c8e5780601f10610c6357610100808354040283529160200191610c8e565b820191906000526020600020905b815481529060010190602001808311610c7157829003601f168201915b505050505081565b610ca7610ca1610f11565b836111a0565b610ce6576040517f08c379a0000000000000000000000000000000000000000000000000000000008152600401610cdd90612109565b60405180910390fd5b610cf2848484846114da565b50505050565b6060610d0382610ea5565b610d42576040517f08c379a0000000000000000000000000000000000000000000000000000000008152600401610d39906120c9565b60405180910390fd5b6000610d4c611536565b90506000815111610d6c5760405180602001604052806000815250610d97565b80610d768461154d565b604051602001610d87929190611ea1565b6040516020818303038152906040525b915050919050565b6000600560008473ffffffffffffffffffffffffffffffffffffffff1673ffffffffffffffffffffffffffffffffffffffff16815260200190815260200160002060008373ffffffffffffffffffffffffffffffffffffffff1673ffffffffffffffffffffffffffffffffffffffff16815260200190815260200160002060009054906101000a900460ff16905092915050565b600030905090565b60007f01ffc9a7000000000000000000000000000000000000000000000000000000007bffffffffffffffffffffffffffffffffffffffffffffffffffffffff1916827bffffffffffffffffffffffffffffffffffffffffffffffffffffffff1916149050919050565b60008073ffffffffffffffffffffffffffffffffffffffff166002600084815260200190815260200160002060009054906101000a900473ffffffffffffffffffffffffffffffffffffffff1673ffffffffffffffffffffffffffffffffffffffff1614159050919050565b600033905090565b816004600083815260200190815260200160002060006101000a81548173ffffffffffffffffffffffffffffffffffffffff021916908373ffffffffffffffffffffffffffffffffffffffff160217905550808273ffffffffffffffffffffffffffffffffffffffff16610f8c8361086d565b73ffffffffffffffffffffffffffffffffffffffff167f8c5be1e5ebec7d5bd14f71427d1e84f3dd0314c0f7b2291e5b200ac8c7c3b92560405160405180910390a45050565b600073ffffffffffffffffffffffffffffffffffffffff168273ffffffffffffffffffffffffffffffffffffffff161415611042576040517f08c379a000000000000000000000000000000000000000000000000000000000815260040161103990612069565b60405180910390fd5b61104b81610ea5565b1561108b576040517f08c379a000000000000000000000000000000000000000000000000000000000815260040161108290611f89565b60405180910390fd5b611097600083836116ae565b6001600360008473ffffffffffffffffffffffffffffffffffffffff1673ffffffffffffffffffffffffffffffffffffffff16815260200190815260200160002060008282546110e79190612222565b92505081905550816002600083815260200190815260200160002060006101000a81548173ffffffffffffffffffffffffffffffffffffffff021916908373ffffffffffffffffffffffffffffffffffffffff160217905550808273ffffffffffffffffffffffffffffffffffffffff16600073ffffffffffffffffffffffffffffffffffffffff167fddf252ad1be2c89b69c2b068fc378daa952ba7f163c4a11628f55a4df523b3ef60405160405180910390a45050565b60006111ab82610ea5565b6111ea576040517f08c379a00000000000000000000000000000000000000000000000000000000081526004016111e190611fe9565b60405180910390fd5b60006111f58361086d565b90508073ffffffffffffffffffffffffffffffffffffffff168473ffffffffffffffffffffffffffffffffffffffff16148061126457508373ffffffffffffffffffffffffffffffffffffffff1661124c84610509565b73ffffffffffffffffffffffffffffffffffffffff16145b8061127557506112748185610d9f565b5b91505092915050565b8273ffffffffffffffffffffffffffffffffffffffff1661129e8261086d565b73ffffffffffffffffffffffffffffffffffffffff16146112f4576040517f08c379a00000000000000000000000000000000000000000000000000000000081526004016112eb906120a9565b60405180910390fd5b600073ffffffffffffffffffffffffffffffffffffffff168273ffffffffffffffffffffffffffffffffffffffff161415611364576040517f08c379a000000000000000000000000000000000000000000000000000000000815260040161135b90611fa9565b60405180910390fd5b61136f8383836116ae565b61137a600082610f19565b6001600360008573ffffffffffffffffffffffffffffffffffffffff1673ffffffffffffffffffffffffffffffffffffffff16815260200190815260200160002060008282546113ca91906122a9565b925050819055506001600360008473ffffffffffffffffffffffffffffffffffffffff1673ffffffffffffffffffffffffffffffffffffffff16815260200190815260200160002060008282546114219190612222565b92505081905550816002600083815260200190815260200160002060006101000a81548173ffffffffffffffffffffffffffffffffffffffff021916908373ffffffffffffffffffffffffffffffffffffffff160217905550808273ffffffffffffffffffffffffffffffffffffffff168473ffffffffffffffffffffffffffffffffffffffff167fddf252ad1be2c89b69c2b068fc378daa952ba7f163c4a11628f55a4df523b3ef60405160405180910390a4505050565b6114e584848461127e565b6114f1848484846116b3565b611530576040517f08c379a000000000000000000000000000000000000000000000000000000000815260040161152790611f69565b60405180910390fd5b50505050565b606060405180602001604052806000815250905090565b60606000821415611595576040518060400160405280600181526020017f300000000000000000000000000000000000000000000000000000000000000081525090506116a9565b600082905060005b600082146115c75780806115b0906123f6565b915050600a826115c09190612278565b915061159d565b60008167ffffffffffffffff8111156115e3576115e261252c565b5b6040519080825280601f01601f1916602001820160405280156116155781602001600182028036833780820191505090505b5090505b600085146116a25760018261162e91906122a9565b9150600a8561163d919061243f565b60306116499190612222565b60f81b81838151811061165f5761165e6124fd565b5b60200101907effffffffffffffffffffffffffffffffffffffffffffffffffffffffffffff1916908160001a905350600a8561169b9190612278565b9450611619565b8093505050505b919050565b505050565b60006116d48473ffffffffffffffffffffffffffffffffffffffff1661184a565b1561183d578373ffffffffffffffffffffffffffffffffffffffff1663150b7a026116fd610f11565b8786866040518563ffffffff1660e01b815260040161171f9493929190611ee0565b602060405180830381600087803b15801561173957600080fd5b505af192505050801561176a57506040513d601f19601f820116820180604052508101906117679190611b26565b60015b6117ed573d806000811461179a576040519150601f19603f3d011682016040523d82523d6000602084013e61179f565b606091505b506000815114156117e5576040517f08c379a00000000000000000000000000000000000000000000000000000000081526004016117dc90611f69565b60405180910390fd5b805181602001fd5b63150b7a0260e01b7bffffffffffffffffffffffffffffffffffffffffffffffffffffffff1916817bffffffffffffffffffffffffffffffffffffffffffffffffffffffff191614915050611842565b600190505b949350505050565b600080823b905060008111915050919050565b600061187061186b846121ae565b612189565b90508281526020810184848401111561188c5761188b612560565b5b611897848285612351565b509392505050565b6000813590506118ae81612960565b92915050565b6000813590506118c381612977565b92915050565b6000813590506118d88161298e565b92915050565b6000815190506118ed8161298e565b92915050565b600082601f8301126119085761190761255b565b5b813561191884826020860161185d565b91505092915050565b600081359050611930816129a5565b92915050565b60006020828403121561194c5761194b61256a565b5b600061195a8482850161189f565b91505092915050565b6000806040838503121561197a5761197961256a565b5b60006119888582860161189f565b92505060206119998582860161189f565b9150509250929050565b6000806000606084860312156119bc576119bb61256a565b5b60006119ca8682870161189f565b93505060206119db8682870161189f565b92505060406119ec86828701611921565b9150509250925092565b60008060008060808587031215611a1057611a0f61256a565b5b6000611a1e8782880161189f565b9450506020611a2f8782880161189f565b9350506040611a4087828801611921565b925050606085013567ffffffffffffffff811115611a6157611a60612565565b5b611a6d878288016118f3565b91505092959194509250565b60008060408385031215611a9057611a8f61256a565b5b6000611a9e8582860161189f565b9250506020611aaf858286016118b4565b9150509250929050565b60008060408385031215611ad057611acf61256a565b5b6000611ade8582860161189f565b9250506020611aef85828601611921565b9150509250929050565b600060208284031215611b0f57611b0e61256a565b5b6000611b1d848285016118c9565b91505092915050565b600060208284031215611b3c57611b3b61256a565b5b6000611b4a848285016118de565b91505092915050565b600060208284031215611b6957611b6861256a565b5b6000611b7784828501611921565b91505092915050565b60008060008060808587031215611b9a57611b9961256a565b5b6000611ba887828801611921565b9450506020611bb987828801611921565b9350506040611bca87828801611921565b9250506060611bdb87828801611921565b91505092959194509250565b611bf0816122dd565b82525050565b611bff816122ef565b82525050565b6000611c10826121df565b611c1a81856121f5565b9350611c2a818560208601612360565b611c338161256f565b840191505092915050565b6000611c49826121ea565b611c538185612206565b9350611c63818560208601612360565b611c6c8161256f565b840191505092915050565b6000611c82826121ea565b611c8c8185612217565b9350611c9c818560208601612360565b80840191505092915050565b6000611cb5603283612206565b9150611cc082612580565b604082019050919050565b6000611cd8601c83612206565b9150611ce3826125cf565b602082019050919050565b6000611cfb602483612206565b9150611d06826125f8565b604082019050919050565b6000611d1e601983612206565b9150611d2982612647565b602082019050919050565b6000611d41602c83612206565b9150611d4c82612670565b604082019050919050565b6000611d64603883612206565b9150611d6f826126bf565b604082019050919050565b6000611d87602a83612206565b9150611d928261270e565b604082019050919050565b6000611daa602983612206565b9150611db58261275d565b604082019050919050565b6000611dcd602083612206565b9150611dd8826127ac565b602082019050919050565b6000611df0602c83612206565b9150611dfb826127d5565b604082019050919050565b6000611e13602983612206565b9150611e1e82612824565b604082019050919050565b6000611e36602f83612206565b9150611e4182612873565b604082019050919050565b6000611e59602183612206565b9150611e64826128c2565b604082019050919050565b6000611e7c603183612206565b9150611e8782612911565b604082019050919050565b611e9b81612347565b82525050565b6000611ead8285611c77565b9150611eb98284611c77565b91508190509392505050565b6000602082019050611eda6000830184611be7565b92915050565b6000608082019050611ef56000830187611be7565b611f026020830186611be7565b611f0f6040830185611e92565b8181036060830152611f218184611c05565b905095945050505050565b6000602082019050611f416000830184611bf6565b92915050565b60006020820190508181036000830152611f618184611c3e565b905092915050565b60006020820190508181036000830152611f8281611ca8565b9050919050565b60006020820190508181036000830152611fa281611ccb565b9050919050565b60006020820190508181036000830152611fc281611cee565b9050919050565b60006020820190508181036000830152611fe281611d11565b9050919050565b6000602082019050818103600083015261200281611d34565b9050919050565b6000602082019050818103600083015261202281611d57565b9050919050565b6000602082019050818103600083015261204281611d7a565b9050919050565b6000602082019050818103600083015261206281611d9d565b9050919050565b6000602082019050818103600083015261208281611dc0565b9050919050565b600060208201905081810360008301526120a281611de3565b9050919050565b600060208201905081810360008301526120c281611e06565b9050919050565b600060208201905081810360008301526120e281611e29565b9050919050565b6000602082019050818103600083015261210281611e4c565b9050919050565b6000602082019050818103600083015261212281611e6f565b9050919050565b600060208201905061213e6000830184611e92565b92915050565b60006080820190506121596000830187611e92565b6121666020830186611e92565b6121736040830185611e92565b6121806060830184611e92565b95945050505050565b60006121936121a4565b905061219f82826123c5565b919050565b6000604051905090565b600067ffffffffffffffff8211156121c9576121c861252c565b5b6121d28261256f565b9050602081019050919050565b600081519050919050565b600081519050919050565b600082825260208201905092915050565b600082825260208201905092915050565b600081905092915050565b600061222d82612347565b915061223883612347565b9250827fffffffffffffffffffffffffffffffffffffffffffffffffffffffffffffffff0382111561226d5761226c612470565b5b828201905092915050565b600061228382612347565b915061228e83612347565b92508261229e5761229d61249f565b5b828204905092915050565b60006122b482612347565b91506122bf83612347565b9250828210156122d2576122d1612470565b5b828203905092915050565b60006122e882612327565b9050919050565b60008115159050919050565b60007fffffffff0000000000000000000000000000000000000000000000000000000082169050919050565b600073ffffffffffffffffffffffffffffffffffffffff82169050919050565b6000819050919050565b82818337600083830152505050565b60005b8381101561237e578082015181840152602081019050612363565b8381111561238d576000848401525b50505050565b600060028204905060018216806123ab57607f821691505b602082108114156123bf576123be6124ce565b5b50919050565b6123ce8261256f565b810181811067ffffffffffffffff821117156123ed576123ec61252c565b5b80604052505050565b600061240182612347565b91507fffffffffffffffffffffffffffffffffffffffffffffffffffffffffffffffff82141561243457612433612470565b5b600182019050919050565b600061244a82612347565b915061245583612347565b9250826124655761246461249f565b5b828206905092915050565b7f4e487b7100000000000000000000000000000000000000000000000000000000600052601160045260246000fd5b7f4e487b7100000000000000000000000000000000000000000000000000000000600052601260045260246000fd5b7f4e487b7100000000000000000000000000000000000000000000000000000000600052602260045260246000fd5b7f4e487b7100000000000000000000000000000000000000000000000000000000600052603260045260246000fd5b7f4e487b7100000000000000000000000000000000000000000000000000000000600052604160045260246000fd5b600080fd5b600080fd5b600080fd5b600080fd5b6000601f19601f8301169050919050565b7f4552433732313a207472616e7366657220746f206e6f6e20455243373231526560008201527f63656976657220696d706c656d656e7465720000000000000000000000000000602082015250565b7f4552433732313a20746f6b656e20616c7265616479206d696e74656400000000600082015250565b7f4552433732313a207472616e7366657220746f20746865207a65726f2061646460008201527f7265737300000000000000000000000000000000000000000000000000000000602082015250565b7f4552433732313a20617070726f766520746f2063616c6c657200000000000000600082015250565b7f4552433732313a206f70657261746f7220717565727920666f72206e6f6e657860008201527f697374656e7420746f6b656e0000000000000000000000000000000000000000602082015250565b7f4552433732313a20617070726f76652063616c6c6572206973206e6f74206f7760008201527f6e6572206e6f7220617070726f76656420666f7220616c6c0000000000000000602082015250565b7f4552433732313a2062616c616e636520717565727920666f7220746865207a6560008201527f726f206164647265737300000000000000000000000000000000000000000000602082015250565b7f4552433732313a206f776e657220717565727920666f72206e6f6e657869737460008201527f656e7420746f6b656e0000000000000000000000000000000000000000000000602082015250565b7f4552433732313a206d696e7420746f20746865207a65726f2061646472657373600082015250565b7f4552433732313a20617070726f76656420717565727920666f72206e6f6e657860008201527f697374656e7420746f6b656e0000000000000000000000000000000000000000602082015250565b7f4552433732313a207472616e73666572206f6620746f6b656e2074686174206960008201527f73206e6f74206f776e0000000000000000000000000000000000000000000000602082015250565b7f4552433732314d657461646174613a2055524920717565727920666f72206e6f60008201527f6e6578697374656e7420746f6b656e0000000000000000000000000000000000602082015250565b7f4552433732313a20617070726f76616c20746f2063757272656e74206f776e6560008201527f7200000000000000000000000000000000000000000000000000000000000000602082015250565b7f4552433732313a207472616e736665722063616c6c6572206973206e6f74206f60008201527f776e6572206e6f7220617070726f766564000000000000000000000000000000602082015250565b612969816122dd565b811461297457600080fd5b50565b612980816122ef565b811461298b57600080fd5b50565b612997816122fb565b81146129a257600080fd5b50565b6129ae81612347565b81146129b957600080fd5b5056fea26469706673582212207e062e8721b2524b880cabbceebe0cccc708e536b778993473e1d3227f6777f964736f6c63430008060033",
  "immutableReferences": {},
  "source": "// SPDX-License-Identifier: MIT\npragma solidity ^0.8.0;\n\nimport \"@openzeppelin/contracts/token/ERC721/ERC721.sol\";\n\ncontract SolutionManufacturing is ERC721 {\n    constructor() ERC721 ('SolutionManufacturing' , 'SM') {\n    }\n    // Door[] public doors;\n    // Controller[] public controllers;\n    // ControlPanel[] public controlPanels;\n    // CallSign[] public callSigns;\n\n    // uint256 doorId = 1;\n    // uint256 controllerId = 1;\n    // uint256 controlPanelId = 1;\n    // uint256 callSignId = 1;\n\n    struct Door {\n        uint256 nbOfAluminumBars;\n        uint256 nbOfStainlessSheets;\n        uint256 nbOfSprings;\n        uint256 nbOfSensors;\n    }\n    //  struct Controller {\n    //     uint256 id;\n    //     uint256 nbOfAluminumBars;\n    //     uint256 nbOfStainlessSheets;\n    //     uint256 nbOfBumpers;\n    //     uint256 nbOfLeds;\n    // }\n\n    // struct ControlPanel {\n    //     uint256 id;\n    //     uint256 nbOfAluminumBars;\n    //     uint256 nbOfStainlessSheets;\n    //     uint256 nbOfBumpers;\n    //     uint256 nbOfLeds;\n    // }\n\n    // struct CallSign {\n    //     uint256 id;\n    //     uint256 nbOfAluminumBars;\n    //     uint256 nbOfStainlessSheets;\n    //     uint256 nbOfBumpers;\n    //     uint256 nbOfLeds;\n    // }\n\n    // function addingDoors(\n    //     uint256 id,\n    //     uint256 nbOfAluminumBars,\n    //     uint256 nbOfStainlessSheets,\n    //     uint256 nbOfSprings,\n    //     uint256 nbOfSensors\n    // ) public {\n    //     for (uint256 i = 0; i < doors.length; i++) {\n    //         doors[doors.length].id = doorId;\n    //         doors[doors.length].nbOfAluminumBars = nbOfAluminumBars;\n    //         doors[doors.length].nbOfStainlessSheets = nbOfStainlessSheets;\n    //         doors[doors.length].nbOfSprings = nbOfSprings;\n    //         doors[doors.length ].nbOfSensors = nbOfSensors;\n    //         doorId++;\n    //     }\n    // }\n    // function calculatedDoors(uint256 id)\n    // public\n    // view\n    // returns (\n    //     uint256,\n    //     uint256,\n    //     uint256,\n    //     uint256,\n    //     uint256\n    // )\n    // {\n    //     for (uint256 i = 0; i < doors.length; i++) {\n    //         if (doors[i].id == id) {\n    //             return (\n    //                 doors[i].id,\n    //                 doors[i].nbOfAluminumBars,\n    //                 doors[i].nbOfStainlessSheets,\n    //                 doors[i].nbOfSprings,\n    //                 doors[i].nbOfSensors\n    //             );\n    //         }\n    //     }\n    // }\n\n    // function addingController(\n    //     uint256 nbOfAluminumBars,\n    //     uint256 nbOfStainlessSheets,\n    //     uint256 nbOfBumpers,\n    //     uint256 nbOfLeds\n    // ) public {\n    //     for (uint256 i = 0; i < controllers.length; i++) {\n    //     controllers[controllers.length].id = controllerId;\n    //     controllers[controllers.length].nbOfAluminumBars = nbOfAluminumBars;\n    //     controllers[controllers.length].nbOfStainlessSheets = nbOfStainlessSheets;\n    //     controllers[controllers.length].nbOfBumpers = nbOfBumpers;\n    //     controllers[controllers.length].nbOfLeds = nbOfLeds;\n    //     controllerId++;\n    //     }\n    // }\n    // function calculatedController(uint256 id)\n    // public\n    // view\n    // returns (\n    //     uint256,\n    //     uint256,\n    //     uint256,\n    //     uint256\n    // )\n    // {\n    //     for (uint256 i = 0; i < controllers.length; i++) {\n    //         if (controllers[i].id == id) {\n    //             return (\n    //                 controllers[i].id,\n    //                 controllers[i].nbOfAluminumBars,\n    //                 controllers[i].nbOfStainlessSheets,\n    //                 controllers[i].nbOfLeds\n    //             );\n    //         }\n    //     }\n    // }\n\n    // function addingControlPanel(\n    //     uint256 nbOfAluminumBars,\n    //     uint256 nbOfStainlessSheets,\n    //     uint256 nbOfLeds\n    // ) public {\n    //     for (uint256 i = 0; i < controlPanels.length; i++) {\n    //         controlPanels[controlPanels.length].id = controlPanelId;\n    //         controlPanels[controlPanels.length].nbOfAluminumBars = nbOfAluminumBars;\n    //         controlPanels[controlPanels.length].nbOfStainlessSheets = nbOfStainlessSheets;\n    //         controlPanels[controlPanels.length].nbOfLeds = nbOfLeds;\n    //         controlPanelId++;\n    //     }\n    // }\n\n    // function calculatedControlPanel(uint256 id)\n    // public\n    // view\n    // returns (\n    //     uint256,\n    //     uint256,\n    //     uint256,\n    //     uint256\n    // )\n    // {\n    //     for (uint256 i = 0; i < controlPanels.length; i++) {\n    //         if (controlPanels[i].id == id) {\n    //             return (\n    //                controlPanels[i].id,\n    //                controlPanels[i].nbOfAluminumBars,\n    //                controlPanels[i].nbOfStainlessSheets,\n    //                controlPanels[i].nbOfLeds\n    //             );\n    //         }\n    //     }\n    // }\n\n    // function addingCallSign(\n    //     uint256 nbOfAluminumBars,\n    //     uint256 nbOfStainlessSheets,\n    //     uint256 nbOfLeds\n    // ) public {\n    //     for (uint256 i = 0; i < callSigns.length; i++) {\n    //         callSigns[callSigns.length].id = callSignId;\n    //         callSigns[callSigns.length].nbOfAluminumBars = nbOfAluminumBars;\n    //         callSigns[callSigns.length].nbOfStainlessSheets = nbOfStainlessSheets;\n    //         callSigns[callSigns.length].nbOfLeds = nbOfLeds;\n    //         callSignId++;\n    //     }\n    // }\n\n    // function calculatedCallSign(uint256 id)\n    // public\n    // view\n    // returns (\n    //     uint256,\n    //     uint256,\n    //     uint256,\n    //     uint256\n    // )\n    // {\n    //     for (uint256 i = 0; i < callSigns.length; i++) {\n    //         if (callSigns[i].id == id) {\n    //             return (\n    //                callSigns[i].id,\n    //                callSigns[i].nbOfAluminumBars,\n    //                callSigns[i].nbOfStainlessSheets,\n    //                callSigns[i].nbOfLeds\n    //             );\n    //         }\n    //     }\n    // }\n\n    Door[] public solutionDoors;\n    mapping(uint => Door ) door;\n\n    string[] public doors ;\n    // mapping(string => bool) doorsExists;\n\n    function mintDoor ( uint alumBars1, uint steelSheets1, uint springs1, uint sensors1) public {\n        // require(!doorsExists[_door]);\n        uint id = solutionDoors.length;\n        id +=1 ;\n        // doorsExists[_door] = true;\n        _mint(msg.sender, id);\n\n        uint256 varNbOfAluminumBars;\n        uint256 varNbOfStainlessSheets;\n        uint256 varNbOfSprings;\n        uint256 varNbOfSensors;\n        uint256 varNbOfBumpers;\n        uint256 varNbOfLeds;\n\n        // for (uint256 i = 0; i < doors.length; i++) {\n        // solutionDoors[id].nbOfAluminumBars = varNbOfAluminumBars;\n        // solutionDoors[id].nbOfStainlessSheets = varNbOfStainlessSheets;\n        // solutionDoors[id].nbOfSprings = varNbOfSprings;\n        // solutionDoors[id].nbOfSensors = varNbOfSensors;\n        // }\n        solutionDoors.push(Door(door[id].nbOfAluminumBars,door[id].nbOfStainlessSheets,door[id].nbOfSprings,door[id].nbOfSensors));\n        // doors.push(_door);\n\n    }\n\n    function contractAddress() public view returns(address) {\n        return address(this);\n    }\n\n    // function calculatedD0ors(uint256 id) public view returns (uint256, uint256, uint256, uint256 )\n    // {\n    //     for (uint256 i = 0; i < doors.length; i++) {\n    //         if (doors[i].id == id) {\n    //             return (\n    //                 doors[i].id,\n    //                 doors[i].nbOfAluminumBars,\n    //                 doors[i].nbOfStainlessSheets,\n    //                 doors[i].nbOfSprings,\n    //                 doors[i].nbOfSensors\n    //             );\n    //         }\n    //     }\n    // }\n\n}\n",
  "sourcePath": "/Users/usr1080/Desktop/Codeboxx/Week 12 - Blockchain/contracts/SolutionManufacturing.sol",
  "compiler": {
    "name": "solc",
    "version": "0.8.6+commit.11564f7e.Emscripten.clang"
  },
  "schemaVersion": "3.4.2",
  "updatedAt": "2021-08-06T04:11:54.274Z",
  "networkType": "ethereum",
  "devdoc": {
    "kind": "dev",
    "methods": {
      "approve(address,uint256)": {
        "details": "See {IERC721-approve}."
      },
      "balanceOf(address)": {
        "details": "See {IERC721-balanceOf}."
      },
      "getApproved(uint256)": {
        "details": "See {IERC721-getApproved}."
      },
      "isApprovedForAll(address,address)": {
        "details": "See {IERC721-isApprovedForAll}."
      },
      "name()": {
        "details": "See {IERC721Metadata-name}."
      },
      "ownerOf(uint256)": {
        "details": "See {IERC721-ownerOf}."
      },
      "safeTransferFrom(address,address,uint256)": {
        "details": "See {IERC721-safeTransferFrom}."
      },
      "safeTransferFrom(address,address,uint256,bytes)": {
        "details": "See {IERC721-safeTransferFrom}."
      },
      "setApprovalForAll(address,bool)": {
        "details": "See {IERC721-setApprovalForAll}."
      },
      "supportsInterface(bytes4)": {
        "details": "See {IERC165-supportsInterface}."
      },
      "symbol()": {
        "details": "See {IERC721Metadata-symbol}."
      },
      "tokenURI(uint256)": {
        "details": "See {IERC721Metadata-tokenURI}."
      },
      "transferFrom(address,address,uint256)": {
        "details": "See {IERC721-transferFrom}."
      }
    },
    "version": 1
  },
  "userdoc": {
    "kind": "user",
    "methods": {},
    "version": 1
  }
}