{
  "contractName": "SolutionManufacturing",
  "abi": [
    {
      "inputs": [],
      "stateMutability": "nonpayable",
      "type": "constructor"
    },
    {
      "anonymous": false,
      "inputs": [
        {
          "indexed": true,
          "internalType": "address",
          "name": "owner",
          "type": "address"
        },
        {
          "indexed": true,
          "internalType": "address",
          "name": "approved",
          "type": "address"
        },
        {
          "indexed": true,
          "internalType": "uint256",
          "name": "tokenId",
          "type": "uint256"
        }
      ],
      "name": "Approval",
      "type": "event"
    },
    {
      "anonymous": false,
      "inputs": [
        {
          "indexed": true,
          "internalType": "address",
          "name": "owner",
          "type": "address"
        },
        {
          "indexed": true,
          "internalType": "address",
          "name": "operator",
          "type": "address"
        },
        {
          "indexed": false,
          "internalType": "bool",
          "name": "approved",
          "type": "bool"
        }
      ],
      "name": "ApprovalForAll",
      "type": "event"
    },
    {
      "anonymous": false,
      "inputs": [
        {
          "indexed": true,
          "internalType": "address",
          "name": "from",
          "type": "address"
        },
        {
          "indexed": true,
          "internalType": "address",
          "name": "to",
          "type": "address"
        },
        {
          "indexed": true,
          "internalType": "uint256",
          "name": "tokenId",
          "type": "uint256"
        }
      ],
      "name": "Transfer",
      "type": "event"
    },
    {
      "inputs": [
        {
          "internalType": "address",
          "name": "to",
          "type": "address"
        },
        {
          "internalType": "uint256",
          "name": "tokenId",
          "type": "uint256"
        }
      ],
      "name": "approve",
      "outputs": [],
      "stateMutability": "nonpayable",
      "type": "function"
    },
    {
      "inputs": [
        {
          "internalType": "address",
          "name": "owner",
          "type": "address"
        }
      ],
      "name": "balanceOf",
      "outputs": [
        {
          "internalType": "uint256",
          "name": "",
          "type": "uint256"
        }
      ],
      "stateMutability": "view",
      "type": "function"
    },
    {
      "inputs": [],
      "name": "buttons",
      "outputs": [
        {
          "internalType": "uint256",
          "name": "",
          "type": "uint256"
        }
      ],
      "stateMutability": "view",
      "type": "function"
    },
    {
      "inputs": [
        {
          "internalType": "uint256",
          "name": "",
          "type": "uint256"
        }
      ],
      "name": "components",
      "outputs": [
        {
          "internalType": "uint256",
          "name": "amountOfShafts",
          "type": "uint256"
        },
        {
          "internalType": "uint256",
          "name": "amountOfControllers",
          "type": "uint256"
        },
        {
          "internalType": "uint256",
          "name": "amountOfDoors",
          "type": "uint256"
        },
        {
          "internalType": "uint256",
          "name": "amountOfButtons",
          "type": "uint256"
        },
        {
          "internalType": "uint256",
          "name": "amountOfDisplays",
          "type": "uint256"
        }
      ],
      "stateMutability": "view",
      "type": "function"
    },
    {
      "inputs": [],
      "name": "controllers",
      "outputs": [
        {
          "internalType": "uint256",
          "name": "",
          "type": "uint256"
        }
      ],
      "stateMutability": "view",
      "type": "function"
    },
    {
      "inputs": [],
      "name": "displays",
      "outputs": [
        {
          "internalType": "uint256",
          "name": "",
          "type": "uint256"
        }
      ],
      "stateMutability": "view",
      "type": "function"
    },
    {
      "inputs": [],
      "name": "doors",
      "outputs": [
        {
          "internalType": "uint256",
          "name": "",
          "type": "uint256"
        }
      ],
      "stateMutability": "view",
      "type": "function"
    },
    {
      "inputs": [],
      "name": "elevatorShafts",
      "outputs": [
        {
          "internalType": "uint256",
          "name": "",
          "type": "uint256"
        }
      ],
      "stateMutability": "view",
      "type": "function"
    },
    {
      "inputs": [
        {
          "internalType": "uint256",
          "name": "tokenId",
          "type": "uint256"
        }
      ],
      "name": "getApproved",
      "outputs": [
        {
          "internalType": "address",
          "name": "",
          "type": "address"
        }
      ],
      "stateMutability": "view",
      "type": "function"
    },
    {
      "inputs": [
        {
          "internalType": "address",
          "name": "owner",
          "type": "address"
        },
        {
          "internalType": "address",
          "name": "operator",
          "type": "address"
        }
      ],
      "name": "isApprovedForAll",
      "outputs": [
        {
          "internalType": "bool",
          "name": "",
          "type": "bool"
        }
      ],
      "stateMutability": "view",
      "type": "function"
    },
    {
      "inputs": [],
      "name": "name",
      "outputs": [
        {
          "internalType": "string",
          "name": "",
          "type": "string"
        }
      ],
      "stateMutability": "view",
      "type": "function"
    },
    {
      "inputs": [],
      "name": "nbOrder",
      "outputs": [
        {
          "internalType": "uint256",
          "name": "",
          "type": "uint256"
        }
      ],
      "stateMutability": "view",
      "type": "function"
    },
    {
      "inputs": [
        {
          "internalType": "uint256",
          "name": "tokenId",
          "type": "uint256"
        }
      ],
      "name": "ownerOf",
      "outputs": [
        {
          "internalType": "address",
          "name": "",
          "type": "address"
        }
      ],
      "stateMutability": "view",
      "type": "function"
    },
    {
      "inputs": [
        {
          "internalType": "address",
          "name": "from",
          "type": "address"
        },
        {
          "internalType": "address",
          "name": "to",
          "type": "address"
        },
        {
          "internalType": "uint256",
          "name": "tokenId",
          "type": "uint256"
        }
      ],
      "name": "safeTransferFrom",
      "outputs": [],
      "stateMutability": "nonpayable",
      "type": "function"
    },
    {
      "inputs": [
        {
          "internalType": "address",
          "name": "from",
          "type": "address"
        },
        {
          "internalType": "address",
          "name": "to",
          "type": "address"
        },
        {
          "internalType": "uint256",
          "name": "tokenId",
          "type": "uint256"
        },
        {
          "internalType": "bytes",
          "name": "_data",
          "type": "bytes"
        }
      ],
      "name": "safeTransferFrom",
      "outputs": [],
      "stateMutability": "nonpayable",
      "type": "function"
    },
    {
      "inputs": [
        {
          "internalType": "address",
          "name": "operator",
          "type": "address"
        },
        {
          "internalType": "bool",
          "name": "approved",
          "type": "bool"
        }
      ],
      "name": "setApprovalForAll",
      "outputs": [],
      "stateMutability": "nonpayable",
      "type": "function"
    },
    {
      "inputs": [
        {
          "internalType": "bytes4",
          "name": "interfaceId",
          "type": "bytes4"
        }
      ],
      "name": "supportsInterface",
      "outputs": [
        {
          "internalType": "bool",
          "name": "",
          "type": "bool"
        }
      ],
      "stateMutability": "view",
      "type": "function"
    },
    {
      "inputs": [],
      "name": "symbol",
      "outputs": [
        {
          "internalType": "string",
          "name": "",
          "type": "string"
        }
      ],
      "stateMutability": "view",
      "type": "function"
    },
    {
      "inputs": [
        {
          "internalType": "uint256",
          "name": "tokenId",
          "type": "uint256"
        }
      ],
      "name": "tokenURI",
      "outputs": [
        {
          "internalType": "string",
          "name": "",
          "type": "string"
        }
      ],
      "stateMutability": "view",
      "type": "function"
    },
    {
      "inputs": [
        {
          "internalType": "address",
          "name": "from",
          "type": "address"
        },
        {
          "internalType": "address",
          "name": "to",
          "type": "address"
        },
        {
          "internalType": "uint256",
          "name": "tokenId",
          "type": "uint256"
        }
      ],
      "name": "transferFrom",
      "outputs": [],
      "stateMutability": "nonpayable",
      "type": "function"
    },
    {
      "inputs": [],
      "name": "contractAddress",
      "outputs": [
        {
          "internalType": "address",
          "name": "",
          "type": "address"
        }
      ],
      "stateMutability": "view",
      "type": "function"
    },
    {
      "inputs": [
        {
          "internalType": "uint256",
          "name": "batteries",
          "type": "uint256"
        },
        {
          "internalType": "uint256",
          "name": "columns",
          "type": "uint256"
        },
        {
          "internalType": "uint256",
          "name": "elevators",
          "type": "uint256"
        },
        {
          "internalType": "uint256",
          "name": "floors",
          "type": "uint256"
        }
      ],
      "name": "placeOrder",
      "outputs": [
        {
          "internalType": "uint256",
          "name": "",
          "type": "uint256"
        },
        {
          "internalType": "uint256",
          "name": "",
          "type": "uint256"
        },
        {
          "internalType": "uint256",
          "name": "",
          "type": "uint256"
        },
        {
          "internalType": "uint256",
          "name": "",
          "type": "uint256"
        },
        {
          "internalType": "uint256",
          "name": "",
          "type": "uint256"
        }
      ],
      "stateMutability": "nonpayable",
      "type": "function"
    }
  ],
  "bytecode": "0x608060405260006006556000600755600060085560006009556000600a553480156200002a57600080fd5b506040518060400160405280600b81526020017f526f636b6574546f6b656e0000000000000000000000000000000000000000008152506040518060400160405280600281526020017f52540000000000000000000000000000000000000000000000000000000000008152508160009080519060200190620000af929190620000d1565b508060019080519060200190620000c8929190620000d1565b505050620001e6565b828054620000df9062000181565b90600052602060002090601f0160209004810192826200010357600085556200014f565b82601f106200011e57805160ff19168380011785556200014f565b828001600101855582156200014f579182015b828111156200014e57825182559160200191906001019062000131565b5b5090506200015e919062000162565b5090565b5b808211156200017d57600081600090555060010162000163565b5090565b600060028204905060018216806200019a57607f821691505b60208210811415620001b157620001b0620001b7565b5b50919050565b7f4e487b7100000000000000000000000000000000000000000000000000000000600052602260045260246000fd5b61284e80620001f66000396000f3fe608060405234801561001057600080fd5b50600436106101425760003560e01c806370a08231116100b8578063a8ef32fb1161007c578063a8ef32fb14610367578063b88d4fde1461039b578063c5d574fe146103b7578063c87b56dd146103eb578063e985e9c51461041b578063f6b4dfb41461044b57610142565b806370a08231146102c1578063752f00a6146102f15780637cc0c3a71461030f57806395d89b411461032d578063a22cb4651461034b57610142565b806323b872dd1161010a57806323b872dd146101ff578063359919111461021b57806342842e0e1461023957806344f0dc27146102555780635d9de95e146102735780636352211e1461029157610142565b806301ffc9a714610147578063030e56c91461017757806306fdde0314610195578063081812fc146101b3578063095ea7b3146101e3575b600080fd5b610161600480360381019061015c91906119c5565b610469565b60405161016e9190611db2565b60405180910390f35b61017f61054b565b60405161018c9190611f6f565b60405180910390f35b61019d610551565b6040516101aa9190611dcd565b60405180910390f35b6101cd60048036038101906101c89190611a1f565b6105e3565b6040516101da9190611d4b565b60405180910390f35b6101fd60048036038101906101f89190611985565b610668565b005b6102196004803603810190610214919061186f565b610780565b005b6102236107e0565b6040516102309190611f6f565b60405180910390f35b610253600480360381019061024e919061186f565b6107e6565b005b61025d610806565b60405161026a9190611f6f565b60405180910390f35b61027b61080c565b6040516102889190611f6f565b60405180910390f35b6102ab60048036038101906102a69190611a1f565b610812565b6040516102b89190611d4b565b60405180910390f35b6102db60048036038101906102d69190611802565b6108c4565b6040516102e89190611f6f565b60405180910390f35b6102f961097c565b6040516103069190611f6f565b60405180910390f35b610317610982565b6040516103249190611f6f565b60405180910390f35b610335610988565b6040516103429190611dcd565b60405180910390f35b61036560048036038101906103609190611945565b610a1a565b005b610381600480360381019061037c9190611a4c565b610b9b565b604051610392959493929190611f8a565b60405180910390f35b6103b560048036038101906103b091906118c2565b610cfa565b005b6103d160048036038101906103cc9190611a1f565b610d5c565b6040516103e2959493929190611f8a565b60405180910390f35b61040560048036038101906104009190611a1f565b610d92565b6040516104129190611dcd565b60405180910390f35b6104356004803603810190610430919061182f565b610e39565b6040516104429190611db2565b60405180910390f35b610453610ecd565b6040516104609190611d4b565b60405180910390f35b60007f80ac58cd000000000000000000000000000000000000000000000000000000007bffffffffffffffffffffffffffffffffffffffffffffffffffffffff1916827bffffffffffffffffffffffffffffffffffffffffffffffffffffffff1916148061053457507f5b5e139f000000000000000000000000000000000000000000000000000000007bffffffffffffffffffffffffffffffffffffffffffffffffffffffff1916827bffffffffffffffffffffffffffffffffffffffffffffffffffffffff1916145b80610544575061054382610ed5565b5b9050919050565b60065481565b60606000805461056090612241565b80601f016020809104026020016040519081016040528092919081815260200182805461058c90612241565b80156105d95780601f106105ae576101008083540402835291602001916105d9565b820191906000526020600020905b8154815290600101906020018083116105bc57829003601f168201915b5050505050905090565b60006105ee82610f3f565b61062d576040517f08c379a000000000000000000000000000000000000000000000000000000000815260040161062490611ecf565b60405180910390fd5b6004600083815260200190815260200160002060009054906101000a900473ffffffffffffffffffffffffffffffffffffffff169050919050565b600061067382610812565b90508073ffffffffffffffffffffffffffffffffffffffff168373ffffffffffffffffffffffffffffffffffffffff1614156106e4576040517f08c379a00000000000000000000000000000000000000000000000000000000081526004016106db90611f2f565b60405180910390fd5b8073ffffffffffffffffffffffffffffffffffffffff16610703610fab565b73ffffffffffffffffffffffffffffffffffffffff16148061073257506107318161072c610fab565b610e39565b5b610771576040517f08c379a000000000000000000000000000000000000000000000000000000000815260040161076890611e6f565b60405180910390fd5b61077b8383610fb3565b505050565b61079161078b610fab565b8261106c565b6107d0576040517f08c379a00000000000000000000000000000000000000000000000000000000081526004016107c790611f4f565b60405180910390fd5b6107db83838361114a565b505050565b60085481565b61080183838360405180602001604052806000815250610cfa565b505050565b600c5481565b600a5481565b6000806002600084815260200190815260200160002060009054906101000a900473ffffffffffffffffffffffffffffffffffffffff169050600073ffffffffffffffffffffffffffffffffffffffff168173ffffffffffffffffffffffffffffffffffffffff1614156108bb576040517f08c379a00000000000000000000000000000000000000000000000000000000081526004016108b290611eaf565b60405180910390fd5b80915050919050565b60008073ffffffffffffffffffffffffffffffffffffffff168273ffffffffffffffffffffffffffffffffffffffff161415610935576040517f08c379a000000000000000000000000000000000000000000000000000000000815260040161092c90611e8f565b60405180910390fd5b600360008373ffffffffffffffffffffffffffffffffffffffff1673ffffffffffffffffffffffffffffffffffffffff168152602001908152602001600020549050919050565b60095481565b60075481565b60606001805461099790612241565b80601f01602080910402602001604051908101604052809291908181526020018280546109c390612241565b8015610a105780601f106109e557610100808354040283529160200191610a10565b820191906000526020600020905b8154815290600101906020018083116109f357829003601f168201915b5050505050905090565b610a22610fab565b73ffffffffffffffffffffffffffffffffffffffff168273ffffffffffffffffffffffffffffffffffffffff161415610a90576040517f08c379a0000000000000000000000000000000000000000000000000000000008152600401610a8790611e2f565b60405180910390fd5b8060056000610a9d610fab565b73ffffffffffffffffffffffffffffffffffffffff1673ffffffffffffffffffffffffffffffffffffffff16815260200190815260200160002060008473ffffffffffffffffffffffffffffffffffffffff1673ffffffffffffffffffffffffffffffffffffffff16815260200190815260200160002060006101000a81548160ff0219169083151502179055508173ffffffffffffffffffffffffffffffffffffffff16610b4a610fab565b73ffffffffffffffffffffffffffffffffffffffff167f17307eab39ab6107e8899845ad3d59bd9653f200f220920489ca2b5937696c3183604051610b8f9190611db2565b60405180910390a35050565b600080600080600080600c6000815480929190610bb7906122a4565b91905055905060008a8a610bcb91906120fd565b90506000818a610bdb91906120fd565b905080600b6000858152602001908152602001600020600001819055508b600b60008581526020019081526020016000206001018190555080600b6000858152602001908152602001600020600201819055508089610c3a91906120fd565b600b60008581526020019081526020016000206003018190555080600b600085815260200190815260200160002060040181905550600b600084815260200190815260200160002060000154600b600085815260200190815260200160002060010154600b600086815260200190815260200160002060020154600b600087815260200190815260200160002060030154600b60008881526020019081526020016000206004015497509750975097509750505050945094509450945094565b610d0b610d05610fab565b8361106c565b610d4a576040517f08c379a0000000000000000000000000000000000000000000000000000000008152600401610d4190611f4f565b60405180910390fd5b610d56848484846113a6565b50505050565b600b6020528060005260406000206000915090508060000154908060010154908060020154908060030154908060040154905085565b6060610d9d82610f3f565b610ddc576040517f08c379a0000000000000000000000000000000000000000000000000000000008152600401610dd390611f0f565b60405180910390fd5b6000610de6611402565b90506000815111610e065760405180602001604052806000815250610e31565b80610e1084611419565b604051602001610e21929190611d27565b6040516020818303038152906040525b915050919050565b6000600560008473ffffffffffffffffffffffffffffffffffffffff1673ffffffffffffffffffffffffffffffffffffffff16815260200190815260200160002060008373ffffffffffffffffffffffffffffffffffffffff1673ffffffffffffffffffffffffffffffffffffffff16815260200190815260200160002060009054906101000a900460ff16905092915050565b600030905090565b60007f01ffc9a7000000000000000000000000000000000000000000000000000000007bffffffffffffffffffffffffffffffffffffffffffffffffffffffff1916827bffffffffffffffffffffffffffffffffffffffffffffffffffffffff1916149050919050565b60008073ffffffffffffffffffffffffffffffffffffffff166002600084815260200190815260200160002060009054906101000a900473ffffffffffffffffffffffffffffffffffffffff1673ffffffffffffffffffffffffffffffffffffffff1614159050919050565b600033905090565b816004600083815260200190815260200160002060006101000a81548173ffffffffffffffffffffffffffffffffffffffff021916908373ffffffffffffffffffffffffffffffffffffffff160217905550808273ffffffffffffffffffffffffffffffffffffffff1661102683610812565b73ffffffffffffffffffffffffffffffffffffffff167f8c5be1e5ebec7d5bd14f71427d1e84f3dd0314c0f7b2291e5b200ac8c7c3b92560405160405180910390a45050565b600061107782610f3f565b6110b6576040517f08c379a00000000000000000000000000000000000000000000000000000000081526004016110ad90611e4f565b60405180910390fd5b60006110c183610812565b90508073ffffffffffffffffffffffffffffffffffffffff168473ffffffffffffffffffffffffffffffffffffffff16148061113057508373ffffffffffffffffffffffffffffffffffffffff16611118846105e3565b73ffffffffffffffffffffffffffffffffffffffff16145b8061114157506111408185610e39565b5b91505092915050565b8273ffffffffffffffffffffffffffffffffffffffff1661116a82610812565b73ffffffffffffffffffffffffffffffffffffffff16146111c0576040517f08c379a00000000000000000000000000000000000000000000000000000000081526004016111b790611eef565b60405180910390fd5b600073ffffffffffffffffffffffffffffffffffffffff168273ffffffffffffffffffffffffffffffffffffffff161415611230576040517f08c379a000000000000000000000000000000000000000000000000000000000815260040161122790611e0f565b60405180910390fd5b61123b83838361157a565b611246600082610fb3565b6001600360008573ffffffffffffffffffffffffffffffffffffffff1673ffffffffffffffffffffffffffffffffffffffff16815260200190815260200160002060008282546112969190612157565b925050819055506001600360008473ffffffffffffffffffffffffffffffffffffffff1673ffffffffffffffffffffffffffffffffffffffff16815260200190815260200160002060008282546112ed9190612076565b92505081905550816002600083815260200190815260200160002060006101000a81548173ffffffffffffffffffffffffffffffffffffffff021916908373ffffffffffffffffffffffffffffffffffffffff160217905550808273ffffffffffffffffffffffffffffffffffffffff168473ffffffffffffffffffffffffffffffffffffffff167fddf252ad1be2c89b69c2b068fc378daa952ba7f163c4a11628f55a4df523b3ef60405160405180910390a4505050565b6113b184848461114a565b6113bd8484848461157f565b6113fc576040517f08c379a00000000000000000000000000000000000000000000000000000000081526004016113f390611def565b60405180910390fd5b50505050565b606060405180602001604052806000815250905090565b60606000821415611461576040518060400160405280600181526020017f30000000000000000000000000000000000000000000000000000000000000008152509050611575565b600082905060005b6000821461149357808061147c906122a4565b915050600a8261148c91906120cc565b9150611469565b60008167ffffffffffffffff8111156114af576114ae6123da565b5b6040519080825280601f01601f1916602001820160405280156114e15781602001600182028036833780820191505090505b5090505b6000851461156e576001826114fa9190612157565b9150600a8561150991906122ed565b60306115159190612076565b60f81b81838151811061152b5761152a6123ab565b5b60200101907effffffffffffffffffffffffffffffffffffffffffffffffffffffffffffff1916908160001a905350600a8561156791906120cc565b94506114e5565b8093505050505b919050565b505050565b60006115a08473ffffffffffffffffffffffffffffffffffffffff16611716565b15611709578373ffffffffffffffffffffffffffffffffffffffff1663150b7a026115c9610fab565b8786866040518563ffffffff1660e01b81526004016115eb9493929190611d66565b602060405180830381600087803b15801561160557600080fd5b505af192505050801561163657506040513d601f19601f8201168201806040525081019061163391906119f2565b60015b6116b9573d8060008114611666576040519150601f19603f3d011682016040523d82523d6000602084013e61166b565b606091505b506000815114156116b1576040517f08c379a00000000000000000000000000000000000000000000000000000000081526004016116a890611def565b60405180910390fd5b805181602001fd5b63150b7a0260e01b7bffffffffffffffffffffffffffffffffffffffffffffffffffffffff1916817bffffffffffffffffffffffffffffffffffffffffffffffffffffffff19161491505061170e565b600190505b949350505050565b600080823b905060008111915050919050565b600061173c61173784612002565b611fdd565b9050828152602081018484840111156117585761175761240e565b5b6117638482856121ff565b509392505050565b60008135905061177a816127bc565b92915050565b60008135905061178f816127d3565b92915050565b6000813590506117a4816127ea565b92915050565b6000815190506117b9816127ea565b92915050565b600082601f8301126117d4576117d3612409565b5b81356117e4848260208601611729565b91505092915050565b6000813590506117fc81612801565b92915050565b60006020828403121561181857611817612418565b5b60006118268482850161176b565b91505092915050565b6000806040838503121561184657611845612418565b5b60006118548582860161176b565b92505060206118658582860161176b565b9150509250929050565b60008060006060848603121561188857611887612418565b5b60006118968682870161176b565b93505060206118a78682870161176b565b92505060406118b8868287016117ed565b9150509250925092565b600080600080608085870312156118dc576118db612418565b5b60006118ea8782880161176b565b94505060206118fb8782880161176b565b935050604061190c878288016117ed565b925050606085013567ffffffffffffffff81111561192d5761192c612413565b5b611939878288016117bf565b91505092959194509250565b6000806040838503121561195c5761195b612418565b5b600061196a8582860161176b565b925050602061197b85828601611780565b9150509250929050565b6000806040838503121561199c5761199b612418565b5b60006119aa8582860161176b565b92505060206119bb858286016117ed565b9150509250929050565b6000602082840312156119db576119da612418565b5b60006119e984828501611795565b91505092915050565b600060208284031215611a0857611a07612418565b5b6000611a16848285016117aa565b91505092915050565b600060208284031215611a3557611a34612418565b5b6000611a43848285016117ed565b91505092915050565b60008060008060808587031215611a6657611a65612418565b5b6000611a74878288016117ed565b9450506020611a85878288016117ed565b9350506040611a96878288016117ed565b9250506060611aa7878288016117ed565b91505092959194509250565b611abc8161218b565b82525050565b611acb8161219d565b82525050565b6000611adc82612033565b611ae68185612049565b9350611af681856020860161220e565b611aff8161241d565b840191505092915050565b6000611b158261203e565b611b1f818561205a565b9350611b2f81856020860161220e565b611b388161241d565b840191505092915050565b6000611b4e8261203e565b611b58818561206b565b9350611b6881856020860161220e565b80840191505092915050565b6000611b8160328361205a565b9150611b8c8261242e565b604082019050919050565b6000611ba460248361205a565b9150611baf8261247d565b604082019050919050565b6000611bc760198361205a565b9150611bd2826124cc565b602082019050919050565b6000611bea602c8361205a565b9150611bf5826124f5565b604082019050919050565b6000611c0d60388361205a565b9150611c1882612544565b604082019050919050565b6000611c30602a8361205a565b9150611c3b82612593565b604082019050919050565b6000611c5360298361205a565b9150611c5e826125e2565b604082019050919050565b6000611c76602c8361205a565b9150611c8182612631565b604082019050919050565b6000611c9960298361205a565b9150611ca482612680565b604082019050919050565b6000611cbc602f8361205a565b9150611cc7826126cf565b604082019050919050565b6000611cdf60218361205a565b9150611cea8261271e565b604082019050919050565b6000611d0260318361205a565b9150611d0d8261276d565b604082019050919050565b611d21816121f5565b82525050565b6000611d338285611b43565b9150611d3f8284611b43565b91508190509392505050565b6000602082019050611d606000830184611ab3565b92915050565b6000608082019050611d7b6000830187611ab3565b611d886020830186611ab3565b611d956040830185611d18565b8181036060830152611da78184611ad1565b905095945050505050565b6000602082019050611dc76000830184611ac2565b92915050565b60006020820190508181036000830152611de78184611b0a565b905092915050565b60006020820190508181036000830152611e0881611b74565b9050919050565b60006020820190508181036000830152611e2881611b97565b9050919050565b60006020820190508181036000830152611e4881611bba565b9050919050565b60006020820190508181036000830152611e6881611bdd565b9050919050565b60006020820190508181036000830152611e8881611c00565b9050919050565b60006020820190508181036000830152611ea881611c23565b9050919050565b60006020820190508181036000830152611ec881611c46565b9050919050565b60006020820190508181036000830152611ee881611c69565b9050919050565b60006020820190508181036000830152611f0881611c8c565b9050919050565b60006020820190508181036000830152611f2881611caf565b9050919050565b60006020820190508181036000830152611f4881611cd2565b9050919050565b60006020820190508181036000830152611f6881611cf5565b9050919050565b6000602082019050611f846000830184611d18565b92915050565b600060a082019050611f9f6000830188611d18565b611fac6020830187611d18565b611fb96040830186611d18565b611fc66060830185611d18565b611fd36080830184611d18565b9695505050505050565b6000611fe7611ff8565b9050611ff38282612273565b919050565b6000604051905090565b600067ffffffffffffffff82111561201d5761201c6123da565b5b6120268261241d565b9050602081019050919050565b600081519050919050565b600081519050919050565b600082825260208201905092915050565b600082825260208201905092915050565b600081905092915050565b6000612081826121f5565b915061208c836121f5565b9250827fffffffffffffffffffffffffffffffffffffffffffffffffffffffffffffffff038211156120c1576120c061231e565b5b828201905092915050565b60006120d7826121f5565b91506120e2836121f5565b9250826120f2576120f161234d565b5b828204905092915050565b6000612108826121f5565b9150612113836121f5565b9250817fffffffffffffffffffffffffffffffffffffffffffffffffffffffffffffffff048311821515161561214c5761214b61231e565b5b828202905092915050565b6000612162826121f5565b915061216d836121f5565b9250828210156121805761217f61231e565b5b828203905092915050565b6000612196826121d5565b9050919050565b60008115159050919050565b60007fffffffff0000000000000000000000000000000000000000000000000000000082169050919050565b600073ffffffffffffffffffffffffffffffffffffffff82169050919050565b6000819050919050565b82818337600083830152505050565b60005b8381101561222c578082015181840152602081019050612211565b8381111561223b576000848401525b50505050565b6000600282049050600182168061225957607f821691505b6020821081141561226d5761226c61237c565b5b50919050565b61227c8261241d565b810181811067ffffffffffffffff8211171561229b5761229a6123da565b5b80604052505050565b60006122af826121f5565b91507fffffffffffffffffffffffffffffffffffffffffffffffffffffffffffffffff8214156122e2576122e161231e565b5b600182019050919050565b60006122f8826121f5565b9150612303836121f5565b9250826123135761231261234d565b5b828206905092915050565b7f4e487b7100000000000000000000000000000000000000000000000000000000600052601160045260246000fd5b7f4e487b7100000000000000000000000000000000000000000000000000000000600052601260045260246000fd5b7f4e487b7100000000000000000000000000000000000000000000000000000000600052602260045260246000fd5b7f4e487b7100000000000000000000000000000000000000000000000000000000600052603260045260246000fd5b7f4e487b7100000000000000000000000000000000000000000000000000000000600052604160045260246000fd5b600080fd5b600080fd5b600080fd5b600080fd5b6000601f19601f8301169050919050565b7f4552433732313a207472616e7366657220746f206e6f6e20455243373231526560008201527f63656976657220696d706c656d656e7465720000000000000000000000000000602082015250565b7f4552433732313a207472616e7366657220746f20746865207a65726f2061646460008201527f7265737300000000000000000000000000000000000000000000000000000000602082015250565b7f4552433732313a20617070726f766520746f2063616c6c657200000000000000600082015250565b7f4552433732313a206f70657261746f7220717565727920666f72206e6f6e657860008201527f697374656e7420746f6b656e0000000000000000000000000000000000000000602082015250565b7f4552433732313a20617070726f76652063616c6c6572206973206e6f74206f7760008201527f6e6572206e6f7220617070726f76656420666f7220616c6c0000000000000000602082015250565b7f4552433732313a2062616c616e636520717565727920666f7220746865207a6560008201527f726f206164647265737300000000000000000000000000000000000000000000602082015250565b7f4552433732313a206f776e657220717565727920666f72206e6f6e657869737460008201527f656e7420746f6b656e0000000000000000000000000000000000000000000000602082015250565b7f4552433732313a20617070726f76656420717565727920666f72206e6f6e657860008201527f697374656e7420746f6b656e0000000000000000000000000000000000000000602082015250565b7f4552433732313a207472616e73666572206f6620746f6b656e2074686174206960008201527f73206e6f74206f776e0000000000000000000000000000000000000000000000602082015250565b7f4552433732314d657461646174613a2055524920717565727920666f72206e6f60008201527f6e6578697374656e7420746f6b656e0000000000000000000000000000000000602082015250565b7f4552433732313a20617070726f76616c20746f2063757272656e74206f776e6560008201527f7200000000000000000000000000000000000000000000000000000000000000602082015250565b7f4552433732313a207472616e736665722063616c6c6572206973206e6f74206f60008201527f776e6572206e6f7220617070726f766564000000000000000000000000000000602082015250565b6127c58161218b565b81146127d057600080fd5b50565b6127dc8161219d565b81146127e757600080fd5b50565b6127f3816121a9565b81146127fe57600080fd5b50565b61280a816121f5565b811461281557600080fd5b5056fea264697066735822122000a842839a4a0cd118ebbf2f45986ebccfe992c0a54dbe22abd153174741b64c64736f6c63430008060033",
  "immutableReferences": {},
  "source": "// SPDX-License-Identifier: MIT\r\npragma solidity ^0.8.0;\r\nimport \"@openzeppelin/contracts/token/ERC721/ERC721.sol\";\r\ncontract SolutionManufacturing is ERC721 {\r\n    constructor() ERC721(\"RocketToken\", \"RT\") {\r\n    }\r\n    \r\n    uint256 public elevatorShafts = 0;\r\n    uint256 public controllers = 0;\r\n    uint256 public doors = 0;\r\n    uint256 public buttons = 0;\r\n    uint256 public displays = 0;\r\n\r\n    struct Components {\r\n\r\n        uint256 amountOfShafts;\r\n        uint256 amountOfControllers;\r\n        uint256 amountOfDoors;\r\n        uint256 amountOfButtons;\r\n        uint256 amountOfDisplays;\r\n\r\n    }\r\n\r\n    mapping(uint => Components) public components;\r\n    uint public nbOrder;\r\n\r\n    function contractAddress() public view returns(address) {\r\n        return address(this);\r\n    }\r\n\r\n    function placeOrder(uint batteries, uint columns, uint elevators, uint floors) public returns (uint,uint,uint,uint,uint) {\r\n        uint id = nbOrder++;\r\n        uint totalNbColumns = columns * batteries;\r\n        uint totalNbElevators = elevators * totalNbColumns;\r\n\r\n        components[id].amountOfShafts = totalNbElevators;\r\n        components[id].amountOfControllers = batteries;\r\n        components[id].amountOfDoors = totalNbElevators;\r\n        components[id].amountOfButtons = floors * totalNbElevators;\r\n        components[id].amountOfDisplays = totalNbElevators;\r\n\r\n        return (components[id].amountOfShafts, components[id].amountOfControllers, components[id].amountOfDoors, components[id].amountOfButtons, components[id].amountOfDisplays);\r\n    }\r\n}\r\n",
  "sourcePath": "C:\\Users\\PC\\Rocket_Elevators_Blockchain\\contracts\\SolutionManufacturing.sol",
  "compiler": {
    "name": "solc",
    "version": "0.8.6+commit.11564f7e.Emscripten.clang"
  },
  "schemaVersion": "3.4.2",
  "updatedAt": "2021-08-04T00:30:25.200Z",
  "devdoc": {
    "kind": "dev",
    "methods": {
      "approve(address,uint256)": {
        "details": "See {IERC721-approve}."
      },
      "balanceOf(address)": {
        "details": "See {IERC721-balanceOf}."
      },
      "getApproved(uint256)": {
        "details": "See {IERC721-getApproved}."
      },
      "isApprovedForAll(address,address)": {
        "details": "See {IERC721-isApprovedForAll}."
      },
      "name()": {
        "details": "See {IERC721Metadata-name}."
      },
      "ownerOf(uint256)": {
        "details": "See {IERC721-ownerOf}."
      },
      "safeTransferFrom(address,address,uint256)": {
        "details": "See {IERC721-safeTransferFrom}."
      },
      "safeTransferFrom(address,address,uint256,bytes)": {
        "details": "See {IERC721-safeTransferFrom}."
      },
      "setApprovalForAll(address,bool)": {
        "details": "See {IERC721-setApprovalForAll}."
      },
      "supportsInterface(bytes4)": {
        "details": "See {IERC165-supportsInterface}."
      },
      "symbol()": {
        "details": "See {IERC721Metadata-symbol}."
      },
      "tokenURI(uint256)": {
        "details": "See {IERC721Metadata-tokenURI}."
      },
      "transferFrom(address,address,uint256)": {
        "details": "See {IERC721-transferFrom}."
      }
    },
    "version": 1
  },
  "userdoc": {
    "kind": "user",
    "methods": {},
    "version": 1
  }
}